:100000000C9438000C9442000C9442000C94420072
:100010000C9442000C9442000C9442000C94420058
:100020000C9442000C9442000C9442000C94420048
:100030000C9442000C9442000C9442000C94420038
:100040000C9442000C9442000C9442000C94420028
:100050000C9442000C9442000C9442000C94420018
:100060000C9442000C9442000C9442000C94420008
:1000700011241FBECFEFD4E0DEBFCDBF0E944400ED
:100080000C945A000C940000D29ADA9A2FEF89E669
:1000900098E1215080409040E1F700C00000DA98DC
:1000A0002FEF89E698E1215080409040E1F700C0B1
:0800B0000000EBCFF894FFCF34
:00000001FF
