:100000000C9438000C9455000C9455000C94550039
:100010000C9455000C9455000C9455000C9455000C
:100020000C9455000C9455000C9455000C945500FC
:100030000C9455000C9455000C9455000C945500EC
:100040000C9455000C9455000C9455000C945500DC
:100050000C9455000C9455000C9455000C945500CC
:100060000C9455000C9455000C9455000C945500BC
:1000700011241FBECFEFD4E0DEBFCDBF13E0A0E060
:10008000B1E0E6E3F3E102C005900D92A035B107BF
:10009000D9F723E0A0E5B3E001C01D92AA35B2076D
:1000A000E1F70E9457000C9499090C940000CDB719
:1000B000DEB72C970FB6F894DEBF0FBECDBF0E94FF
:1000C00043010E942E010E94A8036EE371E088E3C1
:1000D00091E00E949304E0E5F3E0828393838083C0
:1000E000918380B7877C80BF80B7806280BF0E9489
:1000F000D70180EE91E00E94450329833A834B8328
:100100005C836D837E838CE091E00E94FA0485EF2E
:1001100091E00E9445032F83388749875A876B8770
:100120007C878CE091E00E94FA048C851F928F936B
:100130008B851F928F938A851F928F9389851F923B
:100140008F9388851F928F938F811F928F938E81BB
:100150001F928F938D811F928F938C811F928F930B
:100160008B811F928F938A811F928F9389811F9217
:100170008F9385E391E09F938F930E94DD040FB6E8
:10018000F894DEBF0FBECDBF0F2EF2E28F2EF2E04D
:100190009F2EF02D0F2EFEE3AF2EF2E0BF2EF02D9E
:1001A0000F2EF1E5CF2EF2E0DF2EF02D49815A819E
:1001B0006B817C818D819E810E940C02F82EE92E3C
:1001C0002AE049815A816B817C818D819E810E94C8
:1001D000A302782E692E4F81588569857A858B8593
:1001E0009C850E940303182F092F8E2D0E2C000CC6
:1001F000990B9F93EF928F2D0F2C000C990B9F93CF
:10020000FF929F928F920E94DD046F927F92BF9225
:10021000AF920E94DD04802F002E000C990B9F935B
:100220000F93812F012E000C990B9F931F93DF9248
:10023000CF920E94DD048AE090E00E94F3049FEFD9
:100240002FEF8AE4915020408040E1F700C0000089
:100250000FB6F894DEBF0FBECDBFA8CF10BC8FE1A4
:1002600089B986E880BD52988AB188698AB90895AB
:100270005D9BFECF8CB980E090E008955F9BFECF40
:100280008CB190E0089585B7806885BF0895CF92BE
:10029000DF92EF92FF920F931F93CF93DF938DE640
:1002A00092E00E94FA040E948304C82ED92E0E9474
:1002B000880400E010E0C0E0D0E00F2EF3E8EF2E5D
:1002C000F2E0FF2EF02D06C00F5F1F4F011598E0E2
:1002D0001907F9F00E948304282F392FF801F85EDE
:1002E00080834081481781F333273F932F931F92D8
:1002F0004F931F930F93FF92EF920E94DD0421967C
:100300008DB79EB708960FB6F8949EBF0FBE8DBFEF
:10031000DBCF8C2D9D2D0E948804C12CD12C00E0B8
:1003200010E00F2EFCEBEF2EF2E0FF2EF02D07C0B9
:100330009FEFC91AD90AC11488E0D806F9F00E94C3
:100340008304282F392FF601F85E8081821781F30C
:1003500033273F932F931F928F93DF92CF92FF9279
:10036000EF920E94DD040F5F1F4F8DB79EB7089676
:100370000FB6F8949EBF0FBE8DBFDACF1F930F93B9
:10038000DF93CF9389EF92E09F938F930E94DD04D8
:100390000F900F900F900F900F900F90DF91CF91D3
:1003A0001F910F91FF90EF90DF90CF9008958D9A5D
:1003B00080E48FBD89E08EBD1BBC1ABC30980895C7
:1003C000CF93DF93E82FF92FA62FB72F10920010AD
:1003D0002899FECF289BFECFC0E0D0E188818C9386
:1003E00088818083DF91CF910895CF93DF93A82FE9
:1003F000B92FC62FD72F109200102899FECF289B17
:10040000FECFE0E0F0E1808180818081888380817F
:100410008C93DF91CF910895EF92FF920F931F93EA
:10042000CF93DF93CDB7DEB728970FB6F894DEBF32
:100430000FBECDBF4B835C836D837E83182F092F46
:10044000E82EF92EBE016E5F7F4FCE0101960E940D
:10045000E0018981482F50E0212F30E0B9016F5F22
:100460007F4F6817710534F06250710946175707BE
:100470000CF054C0E81608F03FC0421B530B64E672
:10048000649FC001659F900D11246B8170E0621B19
:10049000730B0E940F04262F9A81492F50E0602F82
:1004A00070E0FB013196E917F1052CF032974E17F9
:1004B0005F070CF046C0F91698F5461B570B34E65B
:1004C000349FC001359F900D11244D8150E0FA01F9
:1004D000E61BF70BBF010E940F04962F822F289670
:1004E0000FB6F894DEBF0FBECDBFDF91CF911F9145
:1004F0000F91FF90EF900895C901841B950BAC01FB
:100500006CE96403C001659F900D11244C81B90111
:10051000641B71090E940F04262FBECF20E0BCCFC0
:10052000CB01841B950BAC013CE93403C001359F22
:10053000900D11243E81631B71090E940F04962FB8
:10054000CDCF90E0CBCF1F93CF93DF9300D000D0DF
:1005500000D0CDB7DEB7122F0E940C02492F282FF2
:10056000082E000C330B612F70E01217130614F1E4
:10057000EE27FF27E61BF70B2E173F07DCF0292F8E
:10058000092E000C330B62177307BCF02E173F07C0
:100590008CF597FD9195282F27FD2195291780F13E
:1005A000082E000C990B8095909597FB882780F971
:1005B00090E016C0411569F364F3282F27FD2195BB
:1005C00030E0092E001C000829173005B4F0082E71
:1005D000000C990B8095909597FB882780F990E007
:1005E0000F900F900F900F900F900F90DF91CF9181
:1005F0001F91089584E090E0F3CF82E090E0F0CF87
:1006000083E090E0EDCF0F931F93CF93DF93CDB7AF
:10061000DEB728970FB6F894DEBF0FBECDBF4B8371
:10062000152F6D83072FBE016E5F7F4FCE010196A0
:100630000E94F5012A81201B330B48EC429FC00128
:10064000439F900D11246D81601B770B0E940F0456
:10065000E62F2981211B330B429FC001439F900D40
:1006600011246B81611B770B0E940F048CE9860FAC
:100670009CE99E0F28960FB6F894DEBF0FBECDBF43
:10068000DF91CF911F910F9108958F929F92AF921A
:10069000BF92CF92DF92EF92FF920F931F93CF936F
:1006A000DF93CDB7DEB728970FB6F894DEBF0FBE45
:1006B000CDBFC82ED92EBE01685F7F4FCE010796F1
:1006C000F60109958F809884B92CF92CA82CE82C78
:1006D00008E813E114C0E82E8885F81620F08B1581
:1006E00018F4B82E01C0F82E8CEC94E00197F1F7C5
:1006F00000C00000015011090115110571F0BE0183
:10070000685F7F4FCE010796F60109958F81E81645
:1007100010F38A1508F7A82EDFCF2E2D3A2D4F2D76
:100720005B2D682D792D80E090E028960FB6F89427
:10073000DEBF0FBECDBFDF91CF911F910F91FF9014
:10074000EF90DF90CF90BF90AF909F908F900895E3
:1007500087B38F6B87BBBE98C49A88B38D6088BB04
:1007600081E58DB908958FB9779BFECF8FB108953C
:100770000E94B303089580E00E94B303089588B3F4
:100780008D6088BB0895CF93DF93C82FD92F0E9427
:10079000BF03C130D10549F0C230D10541F0CD2BA6
:1007A00009F4C298DF91CF910895C398FBCFC09808
:1007B000F9CFEF92FF920F931F93CF93DF93E62E23
:1007C000F72EE114F10471F06CF000E010E0C82F96
:1007D000D92F88810E94B3030F5F1F4F2896E01620
:1007E000F106B9F7DF91CF911F910F91FF90EF9034
:1007F00008950F931F93CF93DF93082F192FC0E015
:10080000D0E0C017D10734F40E94BB0321960C1727
:100810001D07D1F7DF91CF911F910F91089597FB9D
:10082000072E16F4009407D077FD09D00E94230408
:1008300007FC05D03EF4909581959F4F08957095E3
:1008400061957F4F0895AA1BBB1B51E107C0AA1FEA
:10085000BB1FA617B70710F0A61BB70B881F991F61
:100860005A95A9F780959095BC01CD0108958F9276
:100870009F92AF92BF92CF92DF92EF92FF92CF936F
:10088000DF93EC01688179818A819B816115710513
:100890008105910521F464E279ED8BE597E02DE186
:1008A00033EF41E050E00E94FF0849015A019B01EB
:1008B000AC01A7EAB1E40E941E096B017C01ACEE19
:1008C000B4EFA50194010E942C09DC01CB018C0D31
:1008D0009D1DAE1DBF1DB7FF03C00197A109B04804
:1008E00088839983AA83BB839F77DF91CF91FF9001
:1008F000EF90DF90CF90BF90AF909F908F90089532
:100900000E943704089580E091E00E943704089522
:10091000A0E0B0E08093000190930101A093020158
:10092000B093030108950F931F93CF93DF93EC01CE
:100930008B01892B51F4672B41F4E0E0F0E0CF010B
:10094000DF91CF911F910F9108956EE070E081E0EB
:1009500090E00E941107FC01892B79F380E88383E2
:100960000115110571F01387028781E88383809157
:10097000500390915103892B21F4F0935103E0939C
:1009800050032097E1F2D187C087838182608383FF
:100990008091520390915303892B89F6F09353036E
:1009A000E09352038091540390915503892B39F6BB
:1009B000F0935503E0935403C2CFA0E0B0E0E3EE20
:1009C000F4E00C944109AE014B5F5F4FFA01619175
:1009D0007191AF0180915203909153030E942605BB
:1009E000E2E00C945D0960915203709153030E9400
:1009F000710808950F931F93CF93DF93E0915203F3
:100A0000F0915303238100E010E021FD0EC00FEFB1
:100A10001FEFC801DF91CF911F910F9108950995A4
:100A2000892B11F00FEF1FEFCE01EC01899160913E
:100A3000520370915303DB011896ED91FC918111E3
:100A4000EECF8AE00995892B21F3E1CFABE0B0E04E
:100A5000ECE2F5E00C9434096C017B018A01FC01A5
:100A600017821682838181FFD9C19AE0592EF6013F
:100A70002381F70123FD859123FF81917F0181155A
:100A800009F41FC1853239F423FD959123FF91911B
:100A90007F01953229F4B60190E00E947108E7CFFA
:100AA00030E0912C612C712CF0E27F1640F59B32E6
:100AB000D9F058F49032D1F09332F1F09E3299F59A
:100AC00076FCFFC0689476F806C09D3291F09033B2
:100AD000C1F4689470F8F70123FD959123FF91917B
:100AE0007F019111E1CF29C0689471F8689472F880
:100AF000F2CF689473F8EFCF689474F8ECCF77FC7A
:100B00001CC080ED890F8A30C8F676FE05C0959C22
:100B1000800D1124982EDFCF659C800D1124682E46
:100B2000689475F8D8CF9C3619F4689477F8D3CFC9
:100B30009C3409F44BC0983671F2892F8F7D85540F
:100B4000833008F445C0933609F466C0933709F43E
:100B500069C0933509F475C0943619F0993609F0D7
:100B60009FC0F80177FE95C061917191819191913B
:100B70008F01272D2F76822E97FF09C090958095A3
:100B8000709561957F4F8F4F9F4F689487F82AE04B
:100B900030E0AE014F5F5F4F5A010E94A1088A19F1
:100BA000A82E86FEC4C0882D8E7FA91408F0BEC072
:100BB00084FE11C182FC05C1F82DFE7E8F2EB92C5A
:100BC000882D8678811509F4BFC000C131E083CF3C
:100BD0003115F9F0085F1F4F8FE3898388248394D0
:100BE000912CAE014F5F5F4F5A01E89477F873FC88
:100BF00003C086149104B0F181149104D1F56114FD
:100C000009F435CFB60180E290E00E9471086A9441
:100C1000F6CF0C5F1F4FE0CFF801808189830E5F14
:100C20001F4FDCCFF801A190B1908F01692D70E0CA
:100C300076FC02C06FEF7FEFC5010E9466084C0191
:100C4000D4CFF801A190B1908F01692D70E076FCAE
:100C500002C06FEF7FEFC5010E9454084C016894F9
:100C600077F8C5CFB60180E290E00E9471086A94DF
:100C7000C0CFF50177FC859177FE81915F01B601C8
:100C800090E00E94710861106A94F1E08F1A910857
:100C9000B3CF61917191072E000C880B990B68CF2F
:100CA000872CE89484F82AE030E0953739F1572D05
:100CB000597F852E903799F058F49835A9F09F36D2
:100CC000D9F0F601868197812B96EFE00C945009BC
:100CD0009837B9F774FC05C020E130E00FC0689484
:100CE00084F8689482F8F8CF74FE03C0872D86607C
:100CF000882E20E132E002C028E030E0F80187FED3
:100D000010C061917191819191918F01FE01319695
:100D10005F01AF010E94A1088A19A82EE89487F804
:100D200040CF6191719180E090E0EFCF882EBA2C96
:100D300084FE46CFFE01EA0DF11D8081803309F06B
:100D400043C0282D297E822E83FC0EC080FE4FC01A
:100D50009A2CB61418F4960C9B18B62C862D8B1969
:100D60006B1408F480E0B80EB61408F042C06B189B
:100D700084FE41C0B60180E390E00E94710882FECB
:100D800009C088E590E081FC02C088E790E0B601E8
:100D90000E947108A914D8F1AA94B12C4FEFA41A9B
:100DA000B40ACE0101964C01A80EB91EF50182913C
:100DB0005F01B60190E00E9471088A149B04B1F7AC
:100DC0001ECFB92C882EB6CF82FC02C0B394BCCF04
:100DD000B394B394B9CFB92C882EF2CEB60180E289
:100DE00090E00E94710873947614C0F3B7CF7B2C07
:100DF000FBCF612CBDCF882D8678811559F280E21A
:100E000081FC8BE287FC8DE2B60190E0C1CFB60198
:100E100080E390E00E9471089A94BCCF8FEF9FEF1F
:100E200053CF0F931F93CF93DF93869F8001879FAC
:100E3000100D969F100D1124C8010E942D07EC0182
:100E4000009729F0A80160E070E00E945F08CE01E1
:100E5000DF91CF911F910F9108950F931F93CF931F
:100E6000DF939C01029710F422E030E0E0915603FA
:100E7000F091570380E090E0A0E0B0E0309791F46B
:100E8000009709F448C0821B930B84309105D0F57C
:100E90008A819B816115710581F1FB0193838283B6
:100EA000FE0111C040815181028113814217530715
:100EB000D8F04217530799F4109761F012960C93EB
:100EC000129713961C933296CF01DF91CF911F9109
:100ED0000F9108950093560310935703F4CF009792
:100EE00051F04817590738F0AC01DB01CA01BD01C8
:100EF000DF01F801C3CFEF01F9CF9093570380933F
:100F00005603CECFFE01E80FF91F219331930297CC
:100F100099838883D9CF4091580350915903411543
:100F2000510541F440910601509107015093590336
:100F3000409358038091040190910501009741F47A
:100F40008DB79EB76091080170910901861B970BC0
:100F50004817590708F0B8CF841B950B82179307E1
:100F600008F4B2CFB9016E5F7F4F8617970708F478
:100F7000ABCF640F751F7093590360935803FA0148
:100F800021933193A1CFCF93DF939C010097E9F098
:100F9000FC01329713821282C0915603D0915703FD
:100FA000DE0180E090E02097A1F480819181280FFC
:100FB000391F80915803909159038217930709F0C4
:100FC00068C0F0935903E0935803DF91CF910895DF
:100FD000DA01AE17BF0708F042C012964D915C913E
:100FE0001397CD014115510599F7DC011396FC9338
:100FF000EE9312974D915D919D01240F351FE217DD
:10100000F30781F4208131812E5F3F4F240F351F7C
:10101000DC0111963C932E932281338113963C93ED
:101020002E931297E0E0F0E08A819B810097B1F562
:10103000DE018D919D918A0F9B1F20915803309165
:1010400059032817390709F6309759F510925703B5
:1010500010925603D0935903C0935803B6CFB3836D
:10106000A28340815181240F351FA217B30771F469
:101070004E5F5F4F2D913C911197240F351F3183A7
:10108000208312962D913C9133832283009709F09F
:10109000ACCFF0935703E093560397CFFE01EC01DA
:1010A000C3CF13821282D6CFFC01059061507040ED
:1010B0000110D8F7809590958E0F9F1F0895DC0141
:1010C00001C06D9341505040E0F70895FC0161501C
:1010D000704001900110D8F7809590958E0F9F1F5A
:1010E00008950F931F93CF93DF93182F092FEB01D0
:1010F0008B8181FD09C01FEF0FEF812F902FDF91B2
:10110000CF911F910F91089582FF14C02E813F81CE
:101110008C819D81281739073CF4E881F981CF0142
:1011200001969983888310838E819F8101969F8386
:101130008E83E3CFE885F985812F0995892BA1F36B
:10114000DACFFA01AA27283051F1203181F1E89451
:101150006F936E7F6E5F7F4F8F4F9F4FAF4FB1E0AA
:101160003ED0B4E03CD0670F781F891F9A1FA11DA5
:10117000680F791F8A1F911DA11D6A0F711D811DA6
:10118000911DA11D20D009F468943F912AE0269F6B
:1011900011243019305D3193DEF6CF010895462FCA
:1011A0004770405D4193B3E00FD0C9F7F6CF462FAB
:1011B0004F70405D4A3318F0495D31FD4052419314
:1011C00002D0A9F7EACFB4E0A695979587957795D1
:1011D0006795BA95C9F700976105710508959B0158
:1011E000AC010A2E06945795479537952795BA95E1
:1011F000C9F7620F731F841F951FA01D0895052E48
:1012000097FB1EF400940E94160957FD07D00E9418
:10121000680907FC03D04EF40C94160950954095CC
:10122000309521953F4F4F4F5F4F08959095809592
:10123000709561957F4F8F4F9F4F08950E948A0947
:10124000A59F900DB49F900DA49F800D911D11241A
:101250000895B7FF0C941E090E941E09821B930B70
:1012600008952F923F924F925F926F927F928F924A
:101270009F92AF92BF92CF92DF92EF92FF920F9325
:101280001F93CF93DF93CDB7DEB7CA1BDB0B0FB62F
:10129000F894DEBF0FBECDBF09942A8839884888EC
:1012A0005F846E847D848C849B84AA84B984C88482
:1012B000DF80EE80FD800C811B81AA81B981CE0F79
:1012C000D11D0FB6F894DEBF0FBECDBFED0108955E
:1012D000A1E21A2EAA1BBB1BFD010DC0AA1FBB1F3A
:1012E000EE1FFF1FA217B307E407F50720F0A21BAC
:1012F000B30BE40BF50B661F771F881F991F1A9419
:1013000069F760957095809590959B01AC01BD0142
:10131000CF010895A29FB001B39FC001A39F700D9C
:10132000811D1124911DB29F700D811D1124911DED
:061330000895F894FFCFC0
:101336000100000000005A03200000184A6F79736C
:101346007469636B2043616C6962726174696F6E64
:1013560020446F6E650D0A2D2D2D2D2D2D2D2D2D35
:101366002D2D2D0D004A6F79737469636B204361CF
:101376006C6962726174696F6E3A200D0A6D6178EC
:1013860020783A202575200D0A6D696E20783A205E
:101396002575200D0A6D617820793A202575200D76
:1013A6000A6D696E20793A202575200D0A6E6575DD
:1013B6007472616C20783A202575200D0A6E657569
:1013C6007472616C20793A202575200D0A2D2D2D19
:1013D6002D2D2D2D2D2D2D2D2D0D0A546F75637050
:1013E60061642043616C6962726174696F6E3A2050
:1013F6000D0A6D617820783A202575200D0A6D69F1
:101406006E20783A202575200D0A6D617820793A8C
:10141600202575200D0A6D696E20793A20257520E4
:101426000D0A6E65757472616C20783A20257520F8
:101436000D0A6E65757472616C20793A2025750DFA
:101446000A2D2D2D2D2D2D2D2D2D2D2D2D0D0A0D4C
:101456000A004A6F79737469636B20706F73205842
:101466003A2025692C20593A2025690D0A004A6F31
:1014760079737469636B206469723A2025750D0A65
:1014860000546F756368706F6420706F7320583AEC
:101496002025692C20593A2025690D0A00537461CC
:1014A6007274696E67205352414D20746573742EB1
:1014B6002E2E005772697465207068617365206509
:1014C60072726F723A206578745F72616D5B253453
:1014D600645D203D2025303258202873686F756C76
:1014E600642062652025303258290A0052657472DC
:1014F600696576616C207068617365206572726FCC
:10150600723A206578745F72616D5B2534645D2084
:101516003D2025303258202873686F756C64206230
:10152600652025303258290A005352414D207465F2
:10153600737420636F6D706C65746564207769746D
:10154600680A253464206572726F727320696E2092
:10155600777269746520706861736520616E640ACC
:10156600253464206572726F727320696E2072650D
:101576007472696576616C2070686173650A0A0029
:00000001FF
