:100000000C9438000C9455000C9455000C94550039
:100010000C9455000C9455000C9455000C9455000C
:100020000C9455000C9455000C9455000C945500FC
:100030000C9455000C9455000C9455000C945500EC
:100040000C9455000C9455000C9455000C945500DC
:100050000C9455000C9455000C9455000C945500CC
:100060000C9455000C9455000C9455000C945500BC
:1000700011241FBECFEFD4E0DEBFCDBF11E0A0E062
:10008000B1E0EEEFFCE002C005900D92AE3EB1078C
:10009000D9F721E0AEEEB1E001C01D92A83FB20752
:1000A000E1F70E94E7000C947D060C940000CF92CB
:1000B000DF92EF92FF920F931F93CF93DF938AE02B
:1000C00091E00E94DE010E946E01C82ED92E0E948E
:1000D000730100E010E0C0E0D0E00F2EF0E2EF2E60
:1000E000F1E0FF2EF02D06C00F5F1F4F011598E0C5
:1000F0001907F9F00E946E01282F392FF801F85ED8
:1001000080834081481781F333273F932F931F92B9
:100110004F931F930F93FF92EF920E94C801219675
:100120008DB79EB708960FB6F8949EBF0FBE8DBFD1
:10013000DBCF8C2D9D2D0E947301C12CD12C00E0B2
:1001400010E00F2EF9E5EF2EF1E0FF2EF02D07C0A5
:100150009FEFC91AD90AC11488E0D806F9F00E94A5
:100160006E01282F392FF601F85E8081821781F306
:1001700033273F932F931F928F93DF92CF92FF925B
:10018000EF920E94C8010F5F1F4F8DB79EB7089670
:100190000FB6F8949EBF0FBE8DBFDACF1F930F939B
:1001A000DF93CF9386E991E09F938F930E94C801DC
:1001B0000F900F900F900F900F900F90DF91CF91B5
:1001C0001F910F91FF90EF90DF90CF9008950E94C4
:1001D000090169E171E083E191E00E947E01EEEEA8
:1001E000F1E0828393838083918380B7877C80BF93
:1001F00080B7806280BF0E941E010E9457002FEFCF
:100200008FE791E0215080409040E1F700C000C0AE
:10021000F6CF10BC8FE189B986E880BD52988AB1CB
:1002200088698AB908955D9BFECF8CB980E090E023
:1002300008955F9BFECF8CB190E0089585B78068EC
:1002400085BF08958F929F92AF92BF92CF92DF9217
:10025000EF92FF92CF93DF93EC01688179818A81DD
:100260009B81611571058105910521F464E279EDA9
:100270008BE597E02DE133EF41E050E00E94E3058C
:1002800049015A019B01AC01A7EAB1E40E940206B0
:100290006B017C01ACEEB4EFA50194010E94100645
:1002A000DC01CB018C0D9D1DAE1DBF1DB7FF03C032
:1002B0000197A109B04888839983AA83BB839F775C
:1002C000DF91CF91FF90EF90DF90CF90BF90AF90F4
:1002D0009F908F9008950E942201089580E091E000
:1002E0000E9422010895A0E0B0E080930001909365
:1002F0000101A0930201B093030108950F931F938E
:10030000CF93DF93EC018B01892B51F4672B41F4E0
:10031000E0E0F0E0CF01DF91CF911F910F910895C0
:100320006EE070E081E090E00E94F503FC01892B13
:1003300079F380E883830115110571F01387028733
:1003400081E883838091EE019091EF01892B21F464
:10035000F093EF01E093EE012097E1F2D187C0879F
:100360008381826083838091F0019091F101892BD8
:1003700089F6F093F101E093F0018091F201909100
:10038000F301892B39F6F093F301E093F201C2CF28
:10039000A0E0B0E0EEECF1E00C942506AE014B5F7E
:1003A0005F4FFA0161917191AF018091F0019091DD
:1003B000F1010E940A02E2E00C9441060F931F93A0
:1003C000CF93DF93E091F001F091F101238100E000
:1003D00010E021FD0EC00FEF1FEFC801DF91CF919C
:1003E0001F910F9108950995892B11F00FEF1FEFC1
:1003F000CE01EC0189916091F0017091F101DB0176
:100400001896ED91FC918111EECF8AE00995892B28
:1004100021F3E1CFABE0B0E0E0E1F2E00C941806AC
:100420006C017B018A01FC0117821682838181FFA6
:10043000D9C19AE0592EF6012381F70123FD859158
:1004400023FF81917F01811509F41FC1853239F4A1
:1004500023FD959123FF91917F01953229F4B601F7
:1004600090E00E945505E7CF30E0912C612C712C73
:10047000F0E27F1640F59B32D9F058F49032D1F07B
:100480009332F1F09E3299F576FCFFC0689476F8CD
:1004900006C09D3291F09033C1F4689470F8F70172
:1004A00023FD959123FF91917F019111E1CF29C007
:1004B000689471F8689472F8F2CF689473F8EFCF8B
:1004C000689474F8ECCF77FC1CC080ED890F8A30FB
:1004D000C8F676FE05C0959C800D1124982EDFCFBE
:1004E000659C800D1124682E689475F8D8CF9C36D1
:1004F00019F4689477F8D3CF9C3409F44BC098363C
:1005000071F2892F8F7D8554833008F445C093366E
:1005100009F466C0933709F469C0933509F475C0CE
:10052000943619F0993609F09FC0F80177FE95C00E
:1005300061917191819191918F01272D2F76822E5A
:1005400097FF09C090958095709561957F4F8F4F6B
:100550009F4F689487F82AE030E0AE014F5F5F4F0D
:100560005A010E9485058A19A82E86FEC4C0882DCE
:100570008E7FA91408F0BEC084FE11C182FC05C1A3
:10058000F82DFE7E8F2EB92C882D8678811509F4E2
:10059000BFC000C131E083CF3115F9F0085F1F4FB4
:1005A0008FE3898388248394912CAE014F5F5F4F42
:1005B0005A01E89477F873FC03C086149104B0F1F3
:1005C00081149104D1F5611409F435CFB60180E2AC
:1005D00090E00E9455056A94F6CF0C5F1F4FE0CF64
:1005E000F801808189830E5F1F4FDCCFF801A19055
:1005F000B1908F01692D70E076FC02C06FEF7FEF44
:10060000C5010E944A054C01D4CFF801A190B190D8
:100610008F01692D70E076FC02C06FEF7FEFC5019E
:100620000E9438054C01689477F8C5CFB60180E286
:1006300090E00E9455056A94C0CFF50177FC859142
:1006400077FE81915F01B60190E00E94550561102F
:100650006A94F1E08F1A9108B3CF61917191072EDE
:10066000000C880B990B68CF872CE89484F82AE05B
:1006700030E0953739F1572D597F852E903799F015
:1006800058F49835A9F09F36D9F0F6018681978104
:100690002B96EFE00C9434069837B9F774FC05C03C
:1006A00020E130E00FC0689484F8689482F8F8CFB5
:1006B00074FE03C0872D8660882E20E132E002C0E0
:1006C00028E030E0F80187FE10C0619171918191BE
:1006D00091918F01FE0131965F01AF010E94850566
:1006E0008A19A82EE89487F840CF6191719180E033
:1006F00090E0EFCF882EBA2C84FE46CFFE01EA0DA3
:10070000F11D8081803309F043C0282D297E822E7F
:1007100083FC0EC080FE4FC09A2CB61418F4960CC1
:100720009B18B62C862D8B196B1408F480E0B80E3C
:10073000B61408F042C06B1884FE41C0B60180E3D5
:1007400090E00E94550582FE09C088E590E081FC9A
:1007500002C088E790E0B6010E945505A914D8F1BF
:10076000AA94B12C4FEFA41AB40ACE0101964C0101
:10077000A80EB91EF50182915F01B60190E00E94BA
:1007800055058A149B04B1F71ECFB92C882EB6CF1D
:1007900082FC02C0B394BCCFB394B394B9CFB92C4C
:1007A000882EF2CEB60180E290E00E945505739447
:1007B0007614C0F3B7CF7B2CFBCF612CBDCF882D37
:1007C0008678811559F280E281FC8BE287FC8DE20C
:1007D000B60190E0C1CFB60180E390E00E945505DC
:1007E0009A94BCCF8FEF9FEF53CF0F931F93CF936C
:1007F000DF93869F8001879F100D969F100D112417
:10080000C8010E941104EC01009729F0A80160E0E2
:1008100070E00E944305CE01DF91CF911F910F91AF
:1008200008950F931F93CF93DF939C01029710F4C9
:1008300022E030E0E091F401F091F50180E090E0F9
:10084000A0E0B0E0309791F4009709F448C0821B13
:10085000930B84309105D0F58A819B8161157105D8
:1008600081F1FB0193838283FE0111C0408151819C
:100870000281138142175307D8F04217530799F4A6
:10088000109761F012960C93129713961C93329660
:10089000CF01DF91CF911F910F9108950093F40143
:1008A0001093F501F4CF009751F04817590738F02D
:1008B000AC01DB01CA01BD01DF01F801C3CFEF01CB
:1008C000F9CF9093F5018093F401CECFFE01E80FAC
:1008D000F91F21933193029799838883D9CF40914F
:1008E000F6015091F7014115510541F4409106017F
:1008F000509107015093F7014093F6018091040154
:1009000090910501009741F48DB79EB76091080161
:1009100070910901861B970B4817590708F0B8CF4B
:10092000841B950B8217930708F4B2CFB9016E5F51
:100930007F4F8617970708F4ABCF640F751F70932E
:10094000F7016093F601FA0121933193A1CFCF9380
:10095000DF939C010097E9F0FC0132971382128229
:10096000C091F401D091F501DE0180E090E0209784
:10097000A1F480819181280F391F8091F601909117
:10098000F7018217930709F068C0F093F701E0932D
:10099000F601DF91CF910895DA01AE17BF0708F095
:1009A00042C012964D915C911397CD0141155105AE
:1009B00099F7DC011396FC93EE9312974D915D919C
:1009C0009D01240F351FE217F30781F42081318147
:1009D0002E5F3F4F240F351FDC0111963C932E9361
:1009E0002281338113963C932E931297E0E0F0E03E
:1009F0008A819B810097B1F5DE018D919D918A0FCF
:100A00009B1F2091F6013091F7012817390709F64D
:100A1000309759F51092F5011092F401D093F70137
:100A2000C093F601B6CFB383A28340815181240FD6
:100A3000351FA217B30771F44E5F5F4F2D913C91A4
:100A40001197240F351F3183208312962D913C91ED
:100A500033832283009709F0ACCFF093F501E09344
:100A6000F40197CFFE01EC01C3CF13821282D6CFDF
:100A7000FC010590615070400110D8F78095909569
:100A80008E0F9F1F0895DC0101C06D9341505040AF
:100A9000E0F70895FC016150704001900110D8F713
:100AA000809590958E0F9F1F08950F931F93CF935E
:100AB000DF93182F092FEB018B8181FD09C01FEFF8
:100AC0000FEF812F902FDF91CF911F910F910895FC
:100AD00082FF14C02E813F818C819D8128173907A8
:100AE0003CF4E881F981CF010196998388831083D2
:100AF0008E819F8101969F838E83E3CFE885F98560
:100B0000812F0995892BA1F3DACFFA01AA27283082
:100B100051F1203181F1E8946F936E7F6E5F7F4FCA
:100B20008F4F9F4FAF4FB1E03ED0B4E03CD0670F46
:100B3000781F891F9A1FA11D680F791F8A1F911D99
:100B4000A11D6A0F711D811D911DA11D20D009F4E9
:100B500068943F912AE0269F11243019305D31932B
:100B6000DEF6CF010895462F4770405D4193B3E014
:100B70000FD0C9F7F6CF462F4F70405D4A3318F0BB
:100B8000495D31FD4052419302D0A9F7EACFB4E06C
:100B9000A6959795879577956795BA95C9F7009724
:100BA0006105710508959B01AC010A2E06945795C5
:100BB000479537952795BA95C9F7620F731F841F1C
:100BC000951FA01D0895052E97FB1EF400940E940A
:100BD000FA0557FD07D00E944C0607FC03D04EF4DF
:100BE0000C94FA0550954095309521953F4F4F4F05
:100BF0005F4F089590958095709561957F4F8F4FC9
:100C00009F4F08950E946E06A59F900DB49F900D72
:100C1000A49F800D911D11240895B7FF0C94020626
:100C20000E940206821B930B08952F923F924F92CF
:100C30005F926F927F928F929F92AF92BF92CF926C
:100C4000DF92EF92FF920F931F93CF93DF93CDB775
:100C5000DEB7CA1BDB0B0FB6F894DEBF0FBECDBFED
:100C600009942A88398848885F846E847D848C84BE
:100C70009B84AA84B984C884DF80EE80FD800C81C7
:100C80001B81AA81B981CE0FD11D0FB6F894DEBFAA
:100C90000FBECDBFED010895A1E21A2EAA1BBB1B0A
:100CA000FD010DC0AA1FBB1FEE1FFF1FA217B30738
:100CB000E407F50720F0A21BB30BE40BF50B661F4E
:100CC000771F881F991F1A9469F760957095809512
:100CD00090959B01AC01BD01CF010895A29FB00189
:100CE000B39FC001A39F700D811D1124911DB29F60
:0E0CF000700D811D1124911D0895F894FFCF01
:100CFE00010000000000F801200053746172746955
:100D0E006E67205352414D20746573742E2E2E0043
:100D1E005772697465207068617365206572726FB1
:100D2E00723A206578745F72616D5B2534645D2064
:100D3E003D2025303258202873686F756C64206210
:100D4E00652025303258290A00526574726965761D
:100D5E00616C207068617365206572726F723A20E3
:100D6E006578745F72616D5B2534645D203D20256E
:100D7E00303258202873686F756C642062652025A8
:100D8E00303258290A005352414D20746573742035
:100D9E00636F6D706C6574656420776974680A257D
:100DAE003464206572726F727320696E2077726977
:100DBE00746520706861736520616E640A25346401
:100DCE00206572726F727320696E2072657472691B
:0E0DDE006576616C2070686173650A0A00001A
:00000001FF
