:100000000C9460030C9495080C947D030C947D0370
:100010000C947D030C947D030C947D030C947D0360
:100020000C947D030C947D030C947D030C947D0350
:100030000C947D030C947D030C947D030C947D0340
:100040000C9480080C947D030C947D030C947D0328
:100050000C947D030C947D030C947D030C947D0320
:100060000C947D030C947D030C947D030C947D0310
:1000700000000000005C00000C000C007C287C28C4
:1000800058DC68002410480028542840000C000068
:10009000007884008478000054385400107C1000EC
:1000A00080400000101010000040000060100C00A4
:1000B00038543800487C40004864580044542C00B0
:1000C0001C107C005C5424003854240064140C0080
:1000D00068542C0048543800004800008048000054
:1000E0001028440028282800442810000454080040
:1000F00038445C00781478007C5428003844280088
:100100007C4438007C5444007C140400384474005F
:100110007C107C00447C440020403C007C106C003F
:100120007C4040007C187C0078103C00384438004B
:100130007C1408003844B8007C146800485424003B
:10014000047C04007C407C003C603C007C307C00F3
:100150006C106C000C700C0064544C00007C44006B
:100160000C106000447C00000804080080808000BF
:1001700000040800304878007C48300030484800CF
:1001800030487C00306850001078140090A8780047
:100190007C08700050744000808074007C106800FF
:1001A000447C4000781078007808700030483000B7
:1001B000F82810003048F80078100800505828003F
:1001C000083C4800384078003840380078207800F3
:1001D0004830480098A0780048685800107884009B
:1001E000007C00008478100008040804000000006F
:1001F0000000005F00000007000700147F147F1458
:10020000242A7F2A1223130864623649552250009B
:1002100005030000001C2241000041221C00082AA6
:100220001C2A0808083E080800503000000808088A
:100230000808006060000020100804023E51494593
:100240003E00427F400042615149462141454B31C9
:100250001814127F1027454545393C4A4949300159
:10026000710905033649494936064949291E0036B0
:100270003600000056360000000814224114141401
:10028000141441221408000201510906324979412F
:100290003E7E1111117E7F494949363E414141223E
:1002A0007F4141221C7F494949417F090901013EA3
:1002B000414151327F0808087F00417F41002040C2
:1002C000413F017F081422417F404040407F0204AB
:1002D000027F7F0408107F3E4141413E7F090909AA
:1002E000063E4151215E7F09192946464949493157
:1002F00001017F01013F4040403F1F2040201F7F00
:100300002018207F631408146303047804036151E8
:1003100049454300007F4141020408102041417FCC
:100320000000040201020440404040400001020479
:100330000020545454787F4844443838444444207E
:10034000384444487F3854545418087E0901020840
:100350001454543C7F0804047800447D400020403D
:10036000443D00007F10284400417F40007C041879
:1003700004787C0804047838444444387C14141409
:1003800008081414187C7C080404084854545420A9
:10039000043F4440203C4040207C1C2040201C3C2A
:1003A0004030403C44281028440C5050503C446499
:1003B000544C44000836410000007F0000004136E4
:1003C000080002010302010000000000000000001C
:1003D000065F5F0600000000070700070700001423
:1003E0007F7F147F7F1400242E6B6B3A120000462F
:1003F0006630180C666200307A4F5D377A48000428
:1004000007030000000000001C3E634100000000E4
:1004100041633E1C000000082A3E1C1C3E2A0808BE
:10042000083E3E0808000000A0E060000000000850
:100430000808080808000000006060000000006074
:1004400030180C060301003E7F594D7F3E000042EC
:10045000427F7F40400000627359496F660000226E
:100460006349497F360000181C16137F7F10002750
:100470006745457D3900003C7E4B497930000003DB
:100480006371190F070000367F49497F3600000667
:100490004F49693F1E000000006C6C000000000026
:1004A000A0EC6C00000000081C3663410000001442
:1004B00014141414140000004163361C08000002D8
:1004C0000351590F0600003E7F415D5D1F1E007CF9
:1004D0007E13137E7C0000417F7F49497F36001CDC
:1004E0003E634141632200417F7F41637F1C0041A5
:1004F0007F7F495D416300417F7F491D0103001CEF
:100500003E6341517372007F7F08087F7F000000C7
:10051000417F7F41000000307040417F3F0100413A
:100520007F7F081C776300417F7F41406070007FC0
:100530007F060C067F7F007F7F060C187F7F001CE4
:100540003E6341633E1C00417F7F49090F06001E48
:100550003F21717F5E0000417F7F19396F46002681
:10056000674D597B32000003417F7F410300007FCC
:100570007F40407F7F00001F3F60603F1F00007F83
:100580007F3018307F7F0063771C081C776300077B
:100590004F78784F0700006773594D47637100002B
:1005A0007F7F41410000000103060C18306000000D
:1005B00041417F7F000000080C0603060C08008004
:1005C000808080808080800000030704000000207D
:1005D0007454543C784000413F7F44447C38003898
:1005E0007C44446C280000307848493F7F40003804
:1005F0007C54545C180000487E7F49030200009838
:10060000BCA4A4F87C0400417F7F08047C7800002F
:10061000447D7D4000000040C484FD7D0000004119
:100620007F7F10386C440000417F7F400000007CD9
:100630007C0C180C7C78007C7C04047C78000038EE
:100640007C44447C38000084FCF8A4243C18001846
:100650003C24A4F8FC8400447C78441C1800004826
:100660005C54547424000000043E7F442400003C89
:100670007C40403C7C40001C3C60603C1C00003CDA
:100680007C6030607C3C00446C3810386C44009CCA
:10069000BCA0A0FC7C00004C64745C4C64000008AE
:1006A000083E7741410000000000777700000041DC
:1006B00041773E0808000002030103020301000025
:1006C00011241FBECFEFD4E0DEBFCDBF12E0A0E00B
:1006D000B1E0E0E9FCE102C005900D92A638B10757
:1006E000D9F722E0A6E8B2E001C01D92A439B20712
:1006F000E1F70E94B6030C94460E0C940000282FDC
:10070000392F2330310521F024303105C1F008950F
:100710008091860290918702009749F483E090E0EF
:1007200090938702809386020E9431080895019772
:1007300090938702809386020E94310808958091E9
:100740008602909187028330910541F00196909343
:100750008702809386020E943108089510928702D2
:100760001092860280E00E943108089500D000D0E7
:1007700000D0CDB7DEB70E945D040E944A040E94FB
:10078000BB060E94D2060E942C070E9478080E9495
:10079000F1040E948608789468E574E082E594E0AC
:1007A0000E944709EAE8F2E0828393838083918381
:1007B00080B7877C80BF80B7806280BF86E0EAE038
:1007C000F1E0DE01119601900D928A95E1F780919A
:1007D00086020E9431080F2EF2E1EF2EF1E0FF2E8B
:1007E000F02D3FC01092880280918602909187027E
:1007F0000E945E089F938F93FF92EF920E9491094F
:100800000F900F900F900F9030C0109289022AE045
:1008100049815A816B817C818D819E810E94BD05B9
:10082000282F392F2115310521F1C9010E947F039D
:1008300020C083E291E00E94A70921C08FE291E0ED
:100840000E94A7091EC08BE391E00E94A7091BC06C
:100850002FEF8FE797E0215080409040E1F700C0F4
:100860000000809188028111BDCF809189028111A1
:10087000CCCF0E949B08072F182F60FDDACF00FD18
:10088000DDCF14FDE0CF10FFE3CF83E491E00E94C1
:10089000A709DECF10BC8FE189B986E880BD88E169
:1008A0008AB908955D9BFECF8CB980E090E00895F1
:1008B0005F9BFECF8CB190E0089585B7806885BFBF
:1008C0000895CF92DF92EF92FF920F931F93CF93F1
:1008D000DF938FE491E00E94A7090E943709C82E98
:1008E000D92E0E943C0900E010E0C0E0D0E00F2EBD
:1008F000F5E6EF2EF1E0FF2EF02D06C00F5F1F4F43
:10090000011598E01907F9F00E943709282F392FAF
:10091000F801F85E80834081481781F333273F93C5
:100920002F931F924F931F930F93FF92EF920E946A
:10093000910921968DB79EB708960FB6F8949EBF81
:100940000FBE8DBFDBCF8C2D9D2D0E943C09C12C8D
:10095000D12C00E010E00F2EFEE9EF2EF1E0FF2E8B
:10096000F02D07C09FEFC91AD90AC11488E0D80634
:10097000F9F00E943709282F392FF601F85E80819F
:10098000821781F333273F932F931F928F93DF9228
:10099000CF92FF92EF920E9491090F5F1F4F8DB788
:1009A0009EB708960FB6F8949EBF0FBE8DBFDACFE4
:1009B0001F930F93DF93CF938BED91E09F938F93D2
:1009C0000E9491090F900F900F900F900F900F9031
:1009D000DF91CF911F910F91FF90EF90DF90CF901B
:1009E00008958D9A80E48FBD89E08EBD1BBC1ABC32
:1009F00030980895CF93DF93E82FF92FA62FB72FC4
:100A0000109200102899FECF289BFECFC0E0D0E1C5
:100A100088818C9388818083DF91CF910895CF93D3
:100A2000DF93A82FB92FC62FD72F10920010289927
:100A3000FECF289BFECFE0E0F0E1808180818081C5
:100A4000888380818C93DF91CF910895EF92FF92FC
:100A50000F931F93CF93DF93CDB7DEB728970FB6D1
:100A6000F894DEBF0FBECDBF4B835C836D837E8366
:100A7000182F092FE82EF92EBE016E5F7F4FCE0191
:100A800001960E94FA048981482F50E0212F30E01E
:100A9000B9016F5F7F4F6817710534F062507109BB
:100AA000461757070CF054C0E81608F03FC0421B29
:100AB000530B64E6649FC001659F900D11246B8108
:100AC00070E0621B730B0E94C308262F9A81492F86
:100AD00050E0602F70E0FB013196E917F1052CF032
:100AE00032974E175F070CF046C0F91698F5461B73
:100AF000570B34E6349FC001359F900D11244D8172
:100B000050E0FA01E61BF70BBF010E94C308962FC5
:100B1000822F28960FB6F894DEBF0FBECDBFDF91AF
:100B2000CF911F910F91FF90EF900895C901841B01
:100B3000950BAC016CE96403C001659F900D112415
:100B40004C81B901641B71090E94C308262FBECFD6
:100B500020E0BCCFCB01841B950BAC013CE93403F6
:100B6000C001359F900D11243E81631B71090E94C5
:100B7000C308962FCDCF90E0CBCF1F93CF93DF93B9
:100B800000D000D000D0CDB7DEB7122F0E942605CE
:100B9000392F282F482F082E000C550B612F70E09D
:100BA00014171506ECF0EE27FF27E61BF70B4E1780
:100BB0005F07B4F0492F990F550B641775079CF028
:100BC0004E175F073CF587FD819537FD31958317FB
:100BD00050F181E090E021159CF082E090E010C09F
:100BE000911589F384F387FD819590E0032E001C15
:100BF0000008831790058CF081E090E0211584F4C3
:100C00000F900F900F900F900F900F90DF91CF915A
:100C10001F91089580E090E0F3CF83E090E0F0CF63
:100C200082E090E0EDCF84E090E0EACF0F931F9355
:100C3000CF93DF93CDB7DEB728970FB6F894DEBF1A
:100C40000FBECDBF4B83152F6D83072FBE016E5F87
:100C50007F4FCE0101960E940F052A81201B330B86
:100C600048EC429FC001439F900D11246D81601B91
:100C7000770B0E94C308E62F2981211B330B429F6B
:100C8000C001439F900D11246B81611B770B0E9463
:100C9000C3088CE9860F9CE99E0F28960FB6F8943E
:100CA000DEBF0FBECDBFDF91CF911F910F91089591
:100CB0008F929F92AF92BF92CF92DF92EF92FF926C
:100CC0000F931F93CF93DF93CDB7DEB728970FB65F
:100CD000F894DEBF0FBECDBFC82ED92EBE01685F0F
:100CE0007F4FCE010796F60109958F809884B92C25
:100CF000F92CA82CE82C08E813E114C0E82E88850C
:100D0000F81620F08B1518F4B82E01C0F82E8CECD4
:100D100094E00197F1F700C000000150110901159E
:100D2000110571F0BE01685F7F4FCE010796F60195
:100D300009958F81E81610F38A1508F7A82EDFCFE2
:100D40002E2D3A2D4F2D5B2D682D792D80E090E0D2
:100D500028960FB6F894DEBF0FBECDBFDF91CF91BE
:100D60001F910F91FF90EF90DF90CF90BF90AF90C9
:100D70009F908F90089587B38D6B87BBBE98C49A60
:100D800088B38D6088BB81E58DB908958FB9779B55
:100D9000FECF8FB108950E94C606089580E00E949C
:100DA000C606089588B38D6088BB0895CF93DF93FE
:100DB000C82FD92F0E94D206C130D10549F0C230C8
:100DC000D10541F0CD2B09F4C298DF91CF91089560
:100DD000C398FBCFC098F9CF0F931F93CF93DF93A6
:100DE000082F192F862F972F009751F04CF0E8010C
:100DF000080F191F89910E94C606C017D107D1F7A5
:100E0000DF91CF911F910F9108950F931F93CF936F
:100E1000DF93082F192F862F972F009751F04CF052
:100E2000E801080F191F0E94CE068993C017D10749
:100E3000D1F7DF91CF911F910F910895CF93C82FD4
:100E4000C19880E090E00E94D6068C2F0E94CB06CD
:100E50000E94D206CF910895B99AC1988EEA0E9455
:100E60001E0781EA0E941E0788EC0E941E0780E28E
:100E70000E941E0782E00E941E0784EA0E941E074D
:100E800086EA0E941E078FEA0E941E070895CF93EC
:100E9000C82FC19A80E090E00E94D6068C2F0E9455
:100EA000CB060E94D206CF910895282F392F2830E3
:100EB000310508F00895806B0E941E070895CF93B6
:100EC000C82F81154CF08F700E941E078C2F8295C1
:100ED0008F7080610E941E07CF910895CF93C62F17
:100EE0000E9455078C2F0E945F07CF9108951F9392
:100EF000CF93DF9380528F35B0F490E0EC01CC0FAC
:100F0000DD1FCC0FDD1FC80FD91FC451DE4F15E008
:100F1000FE0184910E944707115021961111F8CFCC
:100F200080E00E944707DF91CF911F910895CF93F2
:100F3000DF93C82FD92F8881811531F021960E9427
:100F4000770789918111FBCFDF91CF91089560E000
:100F500080E090E00E946E070895CF93282F392FEC
:100F60002830310510F0CF91089560E0C9010E944A
:100F70006E07C0E880E00E944707C150C111FACF58
:100F8000F2CFCF93DF93C0E0D0E0CE010E94AD0757
:100F90002196C830D105C9F70E94A707DF91CF91EC
:100FA0000895DF92EF92FF920F931F93CF93DF93F9
:100FB000062F172FF42E60E00E946E07CAE0F1940E
:100FC0008F2D0E944707C150C111FACFF80120812F
:100FD000211509F441C00F5F1F4F0F2EFAE0DF2EDD
:100FE000F02D06C0D82EF80121918F01211521F195
:100FF00020522F35C0F730E0E901CC0FDD1FCC0FB8
:10100000DD1FC20FD31FC451DE4F0F2EF5E0EF2EB0
:10101000F02DFE0184918F250E944707EA942196C6
:10102000E110F7CF85E08D0D8115E4F28F2D0E9440
:101030004707F6E0DF0ED7CFD11434F08F2D0E9492
:101040004707D394D114D4F7DF91CF911F910F911B
:10105000FF90EF90DF9008950F2EFAE0DF2EF02D35
:10106000EDCFCF93C82F0E94C10741E0C11140E0EE
:1010700062E372E080E090E00E94D10741E0C1307D
:1010800009F040E06CE372E082E090E00E94D1075A
:1010900041E0C23009F040E068E472E084E090E0B2
:1010A0000E94D10741E0C33009F040E062E572E000
:1010B00086E090E00E94D107CF910895282F392F24
:1010C0002230310579F028F4232B79F087E692E07D
:1010D00008952330310519F482E592E008958DE7F3
:1010E00092E0089583E792E008958DE592E00895F7
:1010F0008DE083BF8FE581BF89B7816089BF089587
:101100008F9381E0809389028F9118958A98929AA3
:1011100085B78E7F85BF85B7826085BF80E48ABF33
:101120008BB780648BBF789408958F9381E0809310
:1011300088028F9118951F93CF93DF9381E090E001
:101140000E94D60684E00E94CB0681E48A95F1F7DE
:1011500000C00E94CE06182F83E08A95F1F70000A8
:101160000E94CE06D82F83E08A95F1F700000E94F6
:10117000CE06C82F0E94D206612F7D2F8C2FDF91C3
:10118000CF911F91089597FB072E16F4009407D076
:1011900077FD09D00E94D70807FC05D03EF4909552
:1011A00081959F4F0895709561957F4F0895AA1B73
:1011B000BB1B51E107C0AA1FBB1FA617B70710F042
:1011C000A61BB70B881F991F5A95A9F78095909574
:1011D000BC01CD0108958F929F92AF92BF92CF92A2
:1011E000DF92EF92FF92CF93DF93EC0168817981D8
:1011F0008A819B81611571058105910521F464E265
:1012000079ED8BE597E02DE133EF41E050E00E946E
:10121000AC0D49015A019B01AC01A7EAB1E40E945F
:10122000CB0D6B017C01ACEEB4EFA50194010E94E3
:10123000D90DDC01CB018C0D9D1DAE1DBF1DB7FF6F
:1012400003C00197A109B04888839983AA83BB830F
:101250009F77DF91CF91FF90EF90DF90CF90BF907D
:10126000AF909F908F9008950E94EB08089580E0C2
:1012700091E00E94EB080895A0E0B0E080930001A7
:1012800090930101A0930201B093030108950F937D
:101290001F93CF93DF93EC018B01892B51F4672BC4
:1012A00041F4E0E0F0E0CF01DF91CF911F910F9189
:1012B00008956EE070E081E090E00E94BE0BFC01BA
:1012C000892B79F380E883830115110571F0138769
:1012D000028781E8838380918A0290918B02892B17
:1012E00021F4F0938B02E0938A022097E1F2D187F8
:1012F000C08783818260838380918C0290918D026C
:10130000892B89F6F0938D02E0938C0280918E02F6
:1013100090918F02892B39F6F0938F02E0938E0221
:10132000C2CFA0E0B0E0E7E9F9E00C94EE0DAE0129
:101330004B5F5F4FFA0161917191AF0180918C0217
:1013400090918D020E94D309E2E00C940A0E0F9353
:101350001F93CF93DF93E0918C02F0918D02238154
:1013600000E010E021FD0EC00FEF1FEFC801DF917C
:10137000CF911F910F9108950995892B11F00FEFCF
:101380001FEFCE01EC01899160918C0270918D026A
:10139000DB011896ED91FC918111EECF8AE0099561
:1013A000892B21F3E1CFABE0B0E0E9EDF9E00C945B
:1013B000E10D6C017B018A01FC0117821682838199
:1013C00081FFD9C19AE0592EF6012381F70123FD4F
:1013D000859123FF81917F01811509F41FC1853219
:1013E00039F423FD959123FF91917F01953229F4E2
:1013F000B60190E00E941E0DE7CF30E0912C612CE9
:10140000712CF0E27F1640F59B32D9F058F49032FF
:10141000D1F09332F1F09E3299F576FCFFC06894DA
:1014200076F806C09D3291F09033C1F4689470F85C
:10143000F70123FD959123FF91917F019111E1CF58
:1014400029C0689471F8689472F8F2CF689473F8C0
:10145000EFCF689474F8ECCF77FC1CC080ED890F57
:101460008A30C8F676FE05C0959C800D1124982E12
:10147000DFCF659C800D1124682E689475F8D8CF55
:101480009C3619F4689477F8D3CF9C3409F44BC098
:10149000983671F2892F8F7D8554833008F445C0CA
:1014A000933609F466C0933709F469C0933509F49B
:1014B00075C0943619F0993609F09FC0F80177FE8F
:1014C00095C061917191819191918F01272D2F7616
:1014D000822E97FF09C090958095709561957F4FFA
:1014E0008F4F9F4F689487F82AE030E0AE014F5F3E
:1014F0005F4F5A010E944E0D8A19A82E86FEC4C065
:10150000882D8E7FA91408F0BEC084FE11C182FC14
:1015100005C1F82DFE7E8F2EB92C882D8678811579
:1015200009F4BFC000C131E083CF3115F9F0085F85
:101530001F4F8FE3898388248394912CAE014F5FE2
:101540005F4F5A01E89477F873FC03C08614910446
:10155000B0F181149104D1F5611409F435CFB601CD
:1015600080E290E00E941E0D6A94F6CF0C5F1F4F40
:10157000E0CFF801808189830E5F1F4FDCCFF80137
:10158000A190B1908F01692D70E076FC02C06FEFE1
:101590007FEFC5010E94130D4C01D4CFF801A1903B
:1015A000B1908F01692D70E076FC02C06FEF7FEF84
:1015B000C5010E94010D4C01689477F8C5CFB601B2
:1015C00080E290E00E941E0D6A94C0CFF50177FC86
:1015D000859177FE81915F01B60190E00E941E0D1A
:1015E00061106A94F1E08F1A9108B3CF6191719103
:1015F000072E000C880B990B68CF872CE89484F891
:101600002AE030E0953739F1572D597F852E9037F4
:1016100099F058F49835A9F09F36D9F0F6018681F3
:1016200097812B96EFE00C94FD0D9837B9F774FC79
:1016300005C020E130E00FC0689484F8689482F817
:10164000F8CF74FE03C0872D8660882E20E132E03B
:1016500002C028E030E0F80187FE10C0619171916E
:10166000819191918F01FE0131965F01AF010E943E
:101670004E0D8A19A82EE89487F840CF6191719198
:1016800080E090E0EFCF882EBA2C84FE46CFFE019A
:10169000EA0DF11D8081803309F043C0282D297E99
:1016A000822E83FC0EC080FE4FC09A2CB61418F414
:1016B000960C9B18B62C862D8B196B1408F480E0C1
:1016C000B80EB61408F042C06B1884FE41C0B601D3
:1016D00080E390E00E941E0D82FE09C088E590E044
:1016E00081FC02C088E790E0B6010E941E0DA9149B
:1016F000D8F1AA94B12C4FEFA41AB40ACE010196E6
:101700004C01A80EB91EF50182915F01B60190E06F
:101710000E941E0D8A149B04B1F71ECFB92C882E8F
:10172000B6CF82FC02C0B394BCCFB394B394B9CF0C
:10173000B92C882EF2CEB60180E290E00E941E0DF8
:1017400073947614C0F3B7CF7B2CFBCF612CBDCF45
:10175000882D8678811559F280E281FC8BE287FC26
:101760008DE2B60190E0C1CFB60180E390E00E9427
:101770001E0D9A94BCCF8FEF9FEF53CF0F931F9303
:10178000CF93DF93869F8001879F100D969F100D4A
:101790001124C8010E94DA0BEC01009729F0A8017E
:1017A00060E070E00E940C0DCE01DF91CF911F919F
:1017B0000F9108950F931F93CF93DF939C0102978E
:1017C00010F422E030E0E0919002F091910280E08C
:1017D00090E0A0E0B0E0309791F4009709F448C0A1
:1017E000821B930B84309105D0F58A819B81611512
:1017F000710581F1FB0193838283FE0111C0408159
:1018000051810281138142175307D8F042175307C1
:1018100099F4109761F012960C93129713961C93FB
:101820003296CF01DF91CF911F910F9108950093D0
:10183000900210939102F4CF009751F04817590786
:1018400038F0AC01DB01CA01BD01DF01F801C3CFF3
:10185000EF01F9CF9093910280939002CECFFE01D9
:10186000E80FF91F21933193029799838883D9CF89
:1018700040919202509193024115510541F44091DB
:101880000601509107015093930240939202809178
:10189000040190910501009741F48DB79EB76091C6
:1018A000080170910901861B970B4817590708F02A
:1018B000B8CF841B950B8217930708F4B2CFB901F8
:1018C0006E5F7F4F8617970708F4ABCF640F751FC5
:1018D0007093930260939202FA0121933193A1CF06
:1018E000CF93DF939C010097E9F0FC0132971382BC
:1018F0001282C0919002D0919102DE0180E090E0CE
:101900002097A1F480819181280F391F8091920244
:10191000909193028217930709F068C0F0939302A5
:10192000E0939202DF91CF910895DA01AE17BF07DD
:1019300008F042C012964D915C911397CD0141156C
:10194000510599F7DC011396FC93EE9312974D9194
:101950005D919D01240F351FE217F30781F420816B
:1019600031812E5F3F4F240F351FDC0111963C93D0
:101970002E932281338113963C932E931297E0E0AD
:10198000F0E08A819B810097B1F5DE018D919D91F8
:101990008A0F9B1F209192023091930228173907DA
:1019A00009F6309759F51092910210929002D09357
:1019B0009302C0939202B6CFB383A2834081518138
:1019C000240F351FA217B30771F44E5F5F4F2D919F
:1019D0003C911197240F351F3183208312962D914E
:1019E0003C9133832283009709F0ACCFF0939102AE
:1019F000E093900297CFFE01EC01C3CF13821282D5
:101A0000D6CFFC010590615070400110D8F7809549
:101A100090958E0F9F1F0895DC0101C06D9341507A
:101A20005040E0F70895FC016150704001900110B2
:101A3000D8F7809590958E0F9F1F08950F931F9351
:101A4000CF93DF93182F092FEB018B8181FD09C004
:101A50001FEF0FEF812F902FDF91CF911F910F91EB
:101A6000089582FF14C02E813F818C819D812817AB
:101A700039073CF4E881F981CF0101969983888385
:101A800010838E819F8101969F838E83E3CFE885AB
:101A9000F985812F0995892BA1F3DACFFA01AA27BD
:101AA000283051F1203181F1E8946F936E7F6E5FA1
:101AB0007F4F8F4F9F4FAF4FB1E03ED0B4E03CD04F
:101AC000670F781F891F9A1FA11D680F791F8A1F32
:101AD000911DA11D6A0F711D811D911DA11D20D099
:101AE00009F468943F912AE0269F11243019305D53
:101AF0003193DEF6CF010895462F4770405D419344
:101B0000B3E00FD0C9F7F6CF462F4F70405D4A3390
:101B100018F0495D31FD4052419302D0A9F7EACF58
:101B2000B4E0A6959795879577956795BA95C9F787
:101B300000976105710508959B01AC010A2E06947A
:101B40005795479537952795BA95C9F7620F731F33
:101B5000841F951FA01D0895052E97FB1EF4009469
:101B60000E94C30D57FD07D00E94150E07FC03D03D
:101B70004EF40C94C30D50954095309521953F4FF0
:101B80004F4F5F4F089590958095709561957F4F69
:101B90008F4F9F4F08950E94370EA59F900DB49FC1
:101BA000900DA49F800D911D11240895B7FF0C94F2
:101BB000CB0D0E94CB0D821B930B08952F923F9269
:101BC0004F925F926F927F928F929F92AF92BF924D
:101BD000CF92DF92EF92FF920F931F93CF93DF93F9
:101BE000CDB7DEB7CA1BDB0B0FB6F894DEBF0FBE56
:101BF000CDBF09942A88398848885F846E847D84A3
:101C00008C849B84AA84B984C884DF80EE80FD80A4
:101C10000C811B81AA81B981CE0FD11D0FB6F8941A
:101C2000DEBF0FBECDBFED010895A1E21A2EAA1BA3
:101C3000BB1BFD010DC0AA1FBB1FEE1FFF1FA2177C
:101C4000B307E407F50720F0A21BB30BE40BF50B79
:101C5000661F771F881F991F1A9469F76095709502
:101C6000809590959B01AC01BD01CF010895A29F85
:101C7000B001B39FC001A39F700D811D1124911D60
:101C8000B29F700D811D1124911D0895F894FFCF0E
:101C900001000000000094022000F548F04FA5A1CB
:101CA00000184D656E792076616C67743A20257353
:101CB0000D0A00523120707265737365640D004C1B
:101CC0003120707265737365640D004E6176207506
:101CD000700D004E617620627574746F6E0D005346
:101CE00074617274696E67205352414D207465733C
:101CF000742E2E2E005772697465207068617365AA
:101D0000206572726F723A206578745F72616D5BE4
:101D10002534645D203D2025303258202873686FBB
:101D2000756C642062652025303258290A0052659E
:101D30007472696576616C20706861736520657284
:101D4000726F723A206578745F72616D5B253464DE
:101D50005D203D2025303258202873686F756C64F3
:101D60002062652025303258290A005352414D2007
:101D70007465737420636F6D706C6574656420772F
:101D80006974680A253464206572726F7273206901
:101D90006E20777269746520706861736520616E6A
:101DA000640A253464206572726F727320696E2034
:101DB00072657472696576616C2070686173650A1A
:101DC0000A0045617379204D6F6465004E6F726D36
:101DD000616C204D6F64650048617264204D6F64D2
:101DE0006500496D706F737369626C65004561735E
:101DF00079206D6F6465004E6F726D616C206D6F40
:101E000064650048617264206D6F646500556E6B97
:061E10006E6F776E00000A
:00000001FF
