:100000000C9438000C9455000C9455000C94550039
:100010000C9455000C9455000C9455000C9455000C
:100020000C9455000C9455000C9455000C945500FC
:100030000C9455000C9455000C9455000C945500EC
:100040000C9455000C9455000C9455000C945500DC
:100050000C9455000C9455000C9455000C945500CC
:100060000C9455000C9455000C9455000C945500BC
:1000700011241FBECFEFD4E0DEBFCDBF11E0A0E062
:10008000B1E0EAE9FDE002C005900D92AE3FB10794
:10009000D9F722E0AEEFB1E001C01D92A830B2075F
:1000A000E1F70E9457000C94CB060C94000000D09E
:1000B000CDB7DEB70E94A7000E94920062EA70E00E
:1000C0008CE990E00E94CC01EEEFF1E08283938313
:1000D0008083918380B7877C80BF80B7806280BF38
:1000E0000E943B010CE011E0BE016F5F7F4FCE012B
:1000F00002960E94590189811F928F938A811F92D3
:100100008F931F930F930E9416028FEF9FE2019728
:10011000F1F700C000000F900F900F900F900F901C
:100120000F90E2CF10BC8FE189B986E880BD52986C
:100130008AB188698AB908955D9BFECF8CB980E049
:1001400090E008955F9BFECF8CB190E0089585B755
:10015000806885BF0895CF92DF92EF92FF920F9350
:100160001F93CF93DF938BE191E00E942C020E94BA
:10017000BC01C82ED92E0E94C10100E010E0C0E0F1
:10018000D0E00F2EF1E3EF2EF1E0FF2EF02D06C0B0
:100190000F5F1F4F011598E01907F9F00E94BC018D
:1001A000282F392FF801F85E80834081481781F3AA
:1001B00033273F932F931F924F931F930F93FF92D9
:1001C000EF920E94160221968DB79EB708960FB641
:1001D000F8949EBF0FBE8DBFDBCF8C2D9D2D0E944E
:1001E000C101C12CD12C00E010E00F2EFAE6EF2E59
:1001F000F1E0FF2EF02D07C09FEFC91AD90AC114F4
:1002000088E0D806F9F00E94BC01282F392FF601AA
:10021000F85E8081821781F333273F932F931F92DB
:100220008F93DF92CF92FF92EF920E9416020F5FA0
:100230001F4F8DB79EB708960FB6F8949EBF0FBE9E
:100240008DBFDACF1F930F93DF93CF9387EA91E0AF
:100250009F938F930E9416020F900F900F900F9014
:100260000F900F90DF91CF911F910F91FF90EF9022
:10027000DF90CF9008958D9A80E48FBD89E08EBD88
:100280001BBC1ABC30980895CF93DF93E82FF92F49
:10029000A62FB72F109200102899FECF289BFECFD3
:1002A000C0E0D0E188818C9388818083DF91CF91F9
:1002B0000895CF93DF93C82FD92FA62FB72F109271
:1002C00000102899FECF289BFECFE0E0F0E180816E
:1002D00080818081888380818C93DF91CF91089584
:1002E0008F929F92AF92BF92CF92DF92EF92FF9246
:1002F000CF93DF93EC01688179818A819B816115BD
:1003000071058105910521F464E279ED8BE597E0B3
:100310002DE133EF41E050E00E94310649015A01DE
:100320009B01AC01A7EAB1E40E9450066B017C017D
:10033000ACEEB4EFA50194010E945E06DC01CB0196
:100340008C0D9D1DAE1DBF1DB7FF03C00197A109F8
:10035000B04888839983AA83BB839F77DF91CF912D
:10036000FF90EF90DF90CF90BF90AF909F908F90D5
:1003700008950E947001089580E091E00E9470014C
:100380000895A0E0B0E08093000190930101A09354
:100390000201B093030108950F931F93CF93DF934E
:1003A000EC018B01892B51F4672B41F4E0E0F0E084
:1003B000CF01DF91CF911F910F9108956EE070E012
:1003C00081E090E00E944304FC01892B79F380E8EE
:1003D00083830115110571F01387028781E88383F8
:1003E0008091FE019091FF01892B21F4F093FF0190
:1003F000E093FE012097E1F2D187C087838182607C
:1004000083838091000290910102892B89F6F093F9
:100410000102E09300028091020290910302892B75
:1004200039F6F0930302E0930202C2CFA0E0B0E0FD
:10043000ECE1F2E00C947306AE014B5F5F4FFA0102
:1004400061917191AF0180910002909101020E942F
:100450005802E2E00C948F060F931F93CF93DF9323
:10046000E0910002F0910102238100E010E021FD03
:100470000EC00FEF1FEFC801DF91CF911F910F91B9
:1004800008950995892B11F00FEF1FEFCE01EC01B4
:1004900089916091000270910102DB011896ED9143
:1004A000FC918111EECF8AE00995892B21F3E1CFF0
:1004B000ABE0B0E0EEE5F2E00C9466066C017B0187
:1004C0008A01FC0117821682838181FFD9C19AE0DB
:1004D000592EF6012381F70123FD859123FF819198
:1004E0007F01811509F41FC1853239F423FD9591EF
:1004F00023FF91917F01953229F4B60190E00E948B
:10050000A305E7CF30E0912C612C712CF0E27F162F
:1005100040F59B32D9F058F49032D1F09332F1F09B
:100520009E3299F576FCFFC0689476F806C09D323D
:1005300091F09033C1F4689470F8F70123FD959120
:1005400023FF91917F019111E1CF29C0689471F847
:10055000689472F8F2CF689473F8EFCF689474F8E7
:10056000ECCF77FC1CC080ED890F8A30C8F676FE90
:1005700005C0959C800D1124982EDFCF659C800DC1
:100580001124682E689475F8D8CF9C3619F46894B5
:1005900077F8D3CF9C3409F44BC0983671F2892F89
:1005A0008F7D8554833008F445C0933609F466C0C6
:1005B000933709F469C0933509F475C0943619F07E
:1005C000993609F09FC0F80177FE95C0619171914D
:1005D000819191918F01272D2F76822E97FF09C04F
:1005E00090958095709561957F4F8F4F9F4F689440
:1005F00087F82AE030E0AE014F5F5F4F5A010E945A
:10060000D3058A19A82E86FEC4C0882D8E7FA91412
:1006100008F0BEC084FE11C182FC05C1F82DFE7E2B
:100620008F2EB92C882D8678811509F4BFC000C1A2
:1006300031E083CF3115F9F0085F1F4F8FE38983D5
:1006400088248394912CAE014F5F5F4F5A01E89448
:1006500077F873FC03C086149104B0F181149104FF
:10066000D1F5611409F435CFB60180E290E00E9423
:10067000A3056A94F6CF0C5F1F4FE0CFF80180818D
:1006800089830E5F1F4FDCCFF801A190B1908F01DD
:10069000692D70E076FC02C06FEF7FEFC5010E940C
:1006A00098054C01D4CFF801A190B1908F01692D2C
:1006B00070E076FC02C06FEF7FEFC5010E948605F7
:1006C0004C01689477F8C5CFB60180E290E00E94B3
:1006D000A3056A94C0CFF50177FC859177FE8191DF
:1006E0005F01B60190E00E94A30561106A94F1E0F9
:1006F0008F1A9108B3CF61917191072E000C880B6E
:10070000990B68CF872CE89484F82AE030E095377D
:1007100039F1572D597F852E903799F058F4983537
:10072000A9F09F36D9F0F601868197812B96EFE0EC
:100730000C9482069837B9F774FC05C020E130E0CC
:100740000FC0689484F8689482F8F8CF74FE03C0F0
:10075000872D8660882E20E132E002C028E030E05C
:10076000F80187FE10C061917191819191918F0183
:10077000FE0131965F01AF010E94D3058A19A82EB0
:10078000E89487F840CF6191719180E090E0EFCFDD
:10079000882EBA2C84FE46CFFE01EA0DF11D808121
:1007A000803309F043C0282D297E822E83FC0EC0A1
:1007B00080FE4FC09A2CB61418F4960C9B18B62CD9
:1007C000862D8B196B1408F480E0B80EB61408F06F
:1007D00042C06B1884FE41C0B60180E390E00E94E5
:1007E000A30582FE09C088E590E081FC02C088E78D
:1007F00090E0B6010E94A305A914D8F1AA94B12CE7
:100800004FEFA41AB40ACE0101964C01A80EB91EEE
:10081000F50182915F01B60190E00E94A3058A1460
:100820009B04B1F71ECFB92C882EB6CF82FC02C034
:10083000B394BCCFB394B394B9CFB92C882EF2CE75
:10084000B60180E290E00E94A30573947614C0F391
:10085000B7CF7B2CFBCF612CBDCF882D867881153F
:1008600059F280E281FC8BE287FC8DE2B60190E0D8
:10087000C1CFB60180E390E00E94A3059A94BCCF5B
:100880008FEF9FEF53CF0F931F93CF93DF93869FED
:100890008001879F100D969F100D1124C8010E94A2
:1008A0005F04EC01009729F0A80160E070E00E946D
:1008B0009105CE01DF91CF911F910F9108950F9374
:1008C0001F93CF93DF939C01029710F422E030E056
:1008D000E0910402F091050280E090E0A0E0B0E039
:1008E000309791F4009709F448C0821B930B843031
:1008F0009105D0F58A819B816115710581F1FB011C
:1009000093838283FE0111C0408151810281138152
:1009100042175307D8F04217530799F4109761F024
:1009200012960C93129713961C933296CF01DF9177
:10093000CF911F910F910895009304021093050227
:10094000F4CF009751F04817590738F0AC01DB019C
:10095000CA01BD01DF01F801C3CFEF01F9CF9093C8
:10096000050280930402CECFFE01E80FF91F219308
:100970003193029799838883D9CF40910602509191
:1009800007024115510541F44091060150910701BC
:100990005093070240930602809104019091050153
:1009A000009741F48DB79EB76091080170910901DD
:1009B000861B970B4817590708F0B8CF841B950B77
:1009C0008217930708F4B2CFB9016E5F7F4F861785
:1009D000970708F4ABCF640F751F709307026093FD
:1009E0000602FA0121933193A1CFCF93DF939C01AB
:1009F0000097E9F0FC01329713821282C091040241
:100A0000D0910502DE0180E090E02097A1F4808182
:100A10009181280F391F8091060290910702821759
:100A2000930709F068C0F0930702E0930602DF9194
:100A3000CF910895DA01AE17BF0708F042C01296B1
:100A40004D915C911397CD014115510599F7DC014A
:100A50001396FC93EE9312974D915D919D01240F97
:100A6000351FE217F30781F4208131812E5F3F4F5C
:100A7000240F351FDC0111963C932E932281338184
:100A800013963C932E931297E0E0F0E08A819B81CD
:100A90000097B1F5DE018D919D918A0F9B1F2091EA
:100AA0000602309107022817390709F6309759F5E1
:100AB0001092050210920402D0930702C09306021E
:100AC000B6CFB383A28340815181240F351FA21773
:100AD000B30771F44E5F5F4F2D913C911197240F36
:100AE000351F3183208312962D913C9133832283CD
:100AF000009709F0ACCFF0930502E093040297CF82
:100B0000FE01EC01C3CF13821282D6CFFC01059007
:100B1000615070400110D8F7809590958E0F9F1FFF
:100B20000895DC0101C06D9341505040E0F70895F5
:100B3000FC016150704001900110D8F780959095AC
:100B40008E0F9F1F08950F931F93CF93DF93182F3E
:100B5000092FEB018B8181FD09C01FEF0FEF812F62
:100B6000902FDF91CF911F910F91089582FF14C0B4
:100B70002E813F818C819D81281739073CF4E881C3
:100B8000F981CF0101969983888310838E819F819B
:100B900001969F838E83E3CFE885F985812F0995A0
:100BA000892BA1F3DACFFA01AA27283051F120319D
:100BB00081F1E8946F936E7F6E5F7F4F8F4F9F4FF1
:100BC000AF4FB1E03ED0B4E03CD0670F781F891F33
:100BD0009A1FA11D680F791F8A1F911DA11D6A0F01
:100BE000711D811D911DA11D20D009F468943F91B4
:100BF0002AE0269F11243019305D3193DEF6CF01B3
:100C00000895462F4770405D4193B3E00FD0C9F778
:100C1000F6CF462F4F70405D4A3318F0495D31FDE5
:100C20004052419302D0A9F7EACFB4E0A695979538
:100C3000879577956795BA95C9F70097610571050E
:100C400008959B01AC010A2E069457954795379558
:100C50002795BA95C9F7620F731F841F951FA01DB2
:100C60000895052E97FB1EF400940E94480657FD38
:100C700007D00E949A0607FC03D04EF40C94480655
:100C800050954095309521953F4F4F4F5F4F0895B8
:100C900090958095709561957F4F8F4F9F4F0895E8
:100CA0000E94BC06A59F900DB49F900DA49F800D3F
:100CB000911D11240895B7FF0C9450060E94500610
:100CC000821B930B08952F923F924F925F926F92E7
:100CD0007F928F929F92AF92BF92CF92DF92EF92CC
:100CE000FF920F931F93CF93DF93CDB7DEB7CA1B4D
:100CF000DB0B0FB6F894DEBF0FBECDBF09942A8878
:100D0000398848885F846E847D848C849B84AA841F
:100D1000B984C884DF80EE80FD800C811B81AA81AC
:100D2000B981CE0FD11D0FB6F894DEBF0FBECDBF77
:100D3000ED010895A1E21A2EAA1BBB1BFD010DC0F7
:100D4000AA1FBB1FEE1FFF1FA217B307E407F5077B
:100D500020F0A21BB30BE40BF50B661F771F881F57
:100D6000991F1A9469F760957095809590959B01ED
:100D7000AC01BD01CF010895A29FB001B39FC00196
:100D8000A39F700D811D1124911DB29F700D811DB7
:0A0D90001124911D0895F894FFCF7F
:100D9A00010000000000080220000018583A20252F
:100DAA00752C20593A2025750D0A00537461727406
:100DBA00696E67205352414D20746573742E2E2E2E
:100DCA000057726974652070686173652065727274
:100DDA006F723A206578745F72616D5B2534645D69
:100DEA00203D2025303258202873686F756C6420A6
:100DFA0062652025303258290A0052657472696585
:100E0A0076616C207068617365206572726F723AE0
:100E1A00206578745F72616D5B2534645D203D20C6
:100E2A0025303258202873686F756C6420626520FB
:100E3A0025303258290A005352414D207465737483
:100E4A0020636F6D706C6574656420776974680AD5
:100E5A00253464206572726F727320696E2077720E
:100E6A0069746520706861736520616E640A25344F
:100E7A0064206572726F727320696E207265747273
:0E0E8A00696576616C2070686173650A0A0004
:00000001FF
