:100000000C9460030C949D080C947D030C947D0368
:100010000C947D030C947D030C947D030C947D0360
:100020000C947D030C947D030C947D030C947D0350
:100030000C947D030C947D030C947D030C947D0340
:100040000C9488080C947D030C947D030C947D0320
:100050000C947D030C947D030C947D030C947D0320
:100060000C947D030C947D030C947D030C947D0310
:1000700000000000005C00000C000C007C287C28C4
:1000800058DC68002410480028542840000C000068
:10009000007884008478000054385400107C1000EC
:1000A00080400000101010000040000060100C00A4
:1000B00038543800487C40004864580044542C00B0
:1000C0001C107C005C5424003854240064140C0080
:1000D00068542C0048543800004800008048000054
:1000E0001028440028282800442810000454080040
:1000F00038445C00781478007C5428003844280088
:100100007C4438007C5444007C140400384474005F
:100110007C107C00447C440020403C007C106C003F
:100120007C4040007C187C0078103C00384438004B
:100130007C1408003844B8007C146800485424003B
:10014000047C04007C407C003C603C007C307C00F3
:100150006C106C000C700C0064544C00007C44006B
:100160000C106000447C00000804080080808000BF
:1001700000040800304878007C48300030484800CF
:1001800030487C00306850001078140090A8780047
:100190007C08700050744000808074007C106800FF
:1001A000447C4000781078007808700030483000B7
:1001B000F82810003048F80078100800505828003F
:1001C000083C4800384078003840380078207800F3
:1001D0004830480098A0780048685800107884009B
:1001E000007C00008478100008040804000000006F
:1001F0000000005F00000007000700147F147F1458
:10020000242A7F2A1223130864623649552250009B
:1002100005030000001C2241000041221C00082AA6
:100220001C2A0808083E080800503000000808088A
:100230000808006060000020100804023E51494593
:100240003E00427F400042615149462141454B31C9
:100250001814127F1027454545393C4A4949300159
:10026000710905033649494936064949291E0036B0
:100270003600000056360000000814224114141401
:10028000141441221408000201510906324979412F
:100290003E7E1111117E7F494949363E414141223E
:1002A0007F4141221C7F494949417F090901013EA3
:1002B000414151327F0808087F00417F41002040C2
:1002C000413F017F081422417F404040407F0204AB
:1002D000027F7F0408107F3E4141413E7F090909AA
:1002E000063E4151215E7F09192946464949493157
:1002F00001017F01013F4040403F1F2040201F7F00
:100300002018207F631408146303047804036151E8
:1003100049454300007F4141020408102041417FCC
:100320000000040201020440404040400001020479
:100330000020545454787F4844443838444444207E
:10034000384444487F3854545418087E0901020840
:100350001454543C7F0804047800447D400020403D
:10036000443D00007F10284400417F40007C041879
:1003700004787C0804047838444444387C14141409
:1003800008081414187C7C080404084854545420A9
:10039000043F4440203C4040207C1C2040201C3C2A
:1003A0004030403C44281028440C5050503C446499
:1003B000544C44000836410000007F0000004136E4
:1003C000080002010302010000000000000000001C
:1003D000065F5F0600000000070700070700001423
:1003E0007F7F147F7F1400242E6B6B3A120000462F
:1003F0006630180C666200307A4F5D377A48000428
:1004000007030000000000001C3E634100000000E4
:1004100041633E1C000000082A3E1C1C3E2A0808BE
:10042000083E3E0808000000A0E060000000000850
:100430000808080808000000006060000000006074
:1004400030180C060301003E7F594D7F3E000042EC
:10045000427F7F40400000627359496F660000226E
:100460006349497F360000181C16137F7F10002750
:100470006745457D3900003C7E4B497930000003DB
:100480006371190F070000367F49497F3600000667
:100490004F49693F1E000000006C6C000000000026
:1004A000A0EC6C00000000081C3663410000001442
:1004B00014141414140000004163361C08000002D8
:1004C0000351590F0600003E7F415D5D1F1E007CF9
:1004D0007E13137E7C0000417F7F49497F36001CDC
:1004E0003E634141632200417F7F41637F1C0041A5
:1004F0007F7F495D416300417F7F491D0103001CEF
:100500003E6341517372007F7F08087F7F000000C7
:10051000417F7F41000000307040417F3F0100413A
:100520007F7F081C776300417F7F41406070007FC0
:100530007F060C067F7F007F7F060C187F7F001CE4
:100540003E6341633E1C00417F7F49090F06001E48
:100550003F21717F5E0000417F7F19396F46002681
:10056000674D597B32000003417F7F410300007FCC
:100570007F40407F7F00001F3F60603F1F00007F83
:100580007F3018307F7F0063771C081C776300077B
:100590004F78784F0700006773594D47637100002B
:1005A0007F7F41410000000103060C18306000000D
:1005B00041417F7F000000080C0603060C08008004
:1005C000808080808080800000030704000000207D
:1005D0007454543C784000413F7F44447C38003898
:1005E0007C44446C280000307848493F7F40003804
:1005F0007C54545C180000487E7F49030200009838
:10060000BCA4A4F87C0400417F7F08047C7800002F
:10061000447D7D4000000040C484FD7D0000004119
:100620007F7F10386C440000417F7F400000007CD9
:100630007C0C180C7C78007C7C04047C78000038EE
:100640007C44447C38000084FCF8A4243C18001846
:100650003C24A4F8FC8400447C78441C1800004826
:100660005C54547424000000043E7F442400003C89
:100670007C40403C7C40001C3C60603C1C00003CDA
:100680007C6030607C3C00446C3810386C44009CCA
:10069000BCA0A0FC7C00004C64745C4C64000008AE
:1006A000083E7741410000000000777700000041DC
:1006B00041773E0808000002030103020301000025
:1006C00011241FBECFEFD4E0DEBFCDBF13E0A0E00A
:1006D000B1E0E2E5F0E202C005900D92AC30B10766
:1006E000D9F723E0ACE0B3E001C01D92A831B20716
:1006F000E1F70E947F030C9427100C940000CDB703
:10070000DEB766970FB6F894DEBF0FBECDBF0E946E
:1007100032040E941F040E9490060E94A7060E94B5
:1007200001070E9480080E94C6040E948E0881E092
:100730000E944E0A78946DE274E087E294E00E9491
:10074000280BEEE0F3E0828393838083918380B76C
:10075000877C80BF80B7806280BF80E090E00E948D
:1007600006088BE0EAE0F1E0DE01119601900D92BF
:100770008A95E1F7CE0101960E9440098FEF9FE232
:100780000197F1F700C00000CE010C960E94860987
:10079000811509F44FC087E191E00E94880B8D8597
:1007A0008F938C858F938AE291E09F938F930E9421
:1007B000720B8E851F928F938BE391E09F938F93A3
:1007C0000E94720B88E491E09F938F930E94720BBA
:1007D0000FB6F894DEBF0FBECDBF8E858115E1F058
:1007E0006E01FFE0CF0ED11C10E00F2EFFE4EF2EC4
:1007F000F1E0FF2EF02DF60181916F011F928F9392
:10080000FF92EF920E94720B1F5F0F900F900F905C
:100810000F908E85181778F388E291E00E94880B7C
:10082000FFEF2FEF8EE0F15020408040E1F700C055
:100830000000F6CF87E591E00E94880BF1CF10BC55
:100840008FE189B986E880BD88E18AB908955D9B0A
:10085000FECF8CB980E090E008955F9BFECF8CB115
:1008600090E0089585B7806885BF0895CF92DF92A4
:10087000EF92FF920F931F93CF93DF9380E791E066
:100880000E94880B0E94180BC82ED92E0E941D0BA7
:1008900000E010E0C0E0D0E00F2EF6E8EF2EF1E02F
:1008A000FF2EF02D06C00F5F1F4F011598E01907AE
:1008B000F9F00E94180B282F392FF801F85E808379
:1008C0004081481781F333273F932F931F924F9313
:1008D0001F930F93FF92EF920E94720B21968DB798
:1008E0009EB708960FB6F8949EBF0FBE8DBFDBCFA4
:1008F0008C2D9D2D0E941D0BC12CD12C00E010E0F1
:100900000F2EFFEBEF2EF1E0FF2EF02D07C09FEF33
:10091000C91AD90AC11488E0D806F9F00E94180B48
:10092000282F392FF601F85E8081821781F3332753
:100930003F932F931F928F93DF92CF92FF92EF926C
:100940000E94720B0F5F1F4F8DB79EB708960FB6B0
:10095000F8949EBF0FBE8DBFDACF1F930F93DF9326
:10096000CF938CEF91E09F938F930E94720B0F9027
:100970000F900F900F900F900F90DF91CF911F91DC
:100980000F91FF90EF90DF90CF9008958D9A80E4C3
:100990008FBD89E08EBD1BBC1ABC30980895CF93E3
:1009A000DF93E82FF92FA62FB72F10920010289968
:1009B000FECF289BFECFC0E0D0E188818C93888158
:1009C0008083DF91CF910895CF93DF93A82FB92F24
:1009D000C62FD72F109200102899FECF289BFECF4C
:1009E000E0E0F0E1808180818081888380818C9348
:1009F000DF91CF910895EF92FF920F931F93CF93C2
:100A0000DF93CDB7DEB728970FB6F894DEBF0FBEE1
:100A1000CDBF4B835C836D837E83182F092FE82E17
:100A2000F92EBE016E5F7F4FCE0101960E94CF046A
:100A30008981482F50E0212F30E0B9016F5F7F4F4F
:100A40006817710534F062507109461757070CF0AA
:100A500054C0E81608F03FC0421B530B64E6649F85
:100A6000C001659F900D11246B8170E0621B730BB8
:100A70000E94A40A262F9A81492F50E0602F70E02F
:100A8000FB013196E917F1052CF032974E175F07FD
:100A90000CF046C0F91698F5461B570B34E6349F08
:100AA000C001359F900D11244D8150E0FA01E61BE5
:100AB000F70BBF010E94A40A962F822F28960FB62B
:100AC000F894DEBF0FBECDBFDF91CF911F910F9184
:100AD000FF90EF900895C901841B950BAC016CE960
:100AE0006403C001659F900D11244C81B901641B02
:100AF00071090E94A40A262FBECF20E0BCCFCB01F3
:100B0000841B950BAC013CE93403C001359F900D6B
:100B100011243E81631B71090E94A40A962FCDCF38
:100B200090E0CBCF1F93CF93DF9300D000D000D0C5
:100B3000CDB7DEB7122F0E94FB04392F282F482F84
:100B4000082E000C550B612F70E014171506ECF001
:100B5000EE27FF27E61BF70B4E175F07B4F0492F70
:100B6000990F550B641775079CF04E175F073CF5FE
:100B700087FD819537FD3195831750F181E090E035
:100B800021159CF082E090E010C0911589F384F368
:100B900087FD819590E0032E001C000883179005C7
:100BA0008CF081E090E0211584F40F900F900F906D
:100BB0000F900F900F90DF91CF911F91089580E0DB
:100BC00090E0F3CF83E090E0F0CF82E090E0EDCFD3
:100BD00084E090E0EACF0F931F93CF93DF93CDB7DC
:100BE000DEB728970FB6F894DEBF0FBECDBF4B839C
:100BF000152F6D83072FBE016E5F7F4FCE010196CB
:100C00000E94E4042A81201B330B48EC429FC00160
:100C1000439F900D11246D81601B770B0E94A40AE5
:100C2000E62F2981211B330B429FC001439F900D6A
:100C300011246B81611B770B0E94A40A8CE9860F3B
:100C40009CE99E0F28960FB6F894DEBF0FBECDBF6D
:100C5000DF91CF911F910F9108958F929F92AF9244
:100C6000BF92CF92DF92EF92FF920F931F93CF9399
:100C7000DF93CDB7DEB728970FB6F894DEBF0FBE6F
:100C8000CDBFC82ED92EBE01685F7F4FCE0107961B
:100C9000F60109958F809884B92CF92CA82CE82CA2
:100CA00008E813E114C0E82E8885F81620F08B15AB
:100CB00018F4B82E01C0F82E8CEC94E00197F1F7EF
:100CC00000C00000015011090115110571F0BE01AD
:100CD000685F7F4FCE010796F60109958F81E81670
:100CE00010F38A1508F7A82EDFCF2E2D3A2D4F2DA1
:100CF0005B2D682D792D80E090E028960FB6F89452
:100D0000DEBF0FBECDBFDF91CF911F910F91FF903E
:100D1000EF90DF90CF90BF90AF909F908F9008950D
:100D200087B38D6B87BBBE98C49A88B38D6088BB30
:100D300081E58DB908958FB9779BFECF8FB1089566
:100D40000E949B06089580E00E949B06089588B348
:100D50008D6088BB0895CF93DF93C82FD92F0E9451
:100D6000A706C130D10549F0C230D10541F0CD2BE5
:100D700009F4C298DF91CF910895C398FBCFC09832
:100D8000F9CF0F931F93CF93DF93082F192F862F3F
:100D9000972F009751F04CF0E801080F191F899127
:100DA0000E949B06C017D107D1F7DF91CF911F9109
:100DB0000F9108950F931F93CF93DF93082F192F4F
:100DC000862F972F009751F04CF0E801080F191F5C
:100DD0000E94A3068993C017D107D1F7DF91CF9165
:100DE0001F910F910895CF93C82FC19880E090E094
:100DF0000E94AB068C2F0E94A0060E94A706CF91EE
:100E00000895B99AC1988EEA0E94F30681EA0E9479
:100E1000F30688EC0E94F30680E20E94F30682E06B
:100E20000E94F30684EA0E94F30686EA0E94F30613
:100E30008FEA0E94F3060895CF93C82FC19A80E0ED
:100E400090E00E94AB068C2F0E94A0060E94A7068D
:100E5000CF910895282F392F2830310508F00895B3
:100E6000806B0E94F3060895CF93C82F81154CF034
:100E70008F700E94F3068C2F82958F7080610E9484
:100E8000F306CF910895CF93C62F0E942A078C2F87
:100E90000E943407CF9108951F93CF93DF93805220
:100EA0008F35B0F490E0EC01CC0FDD1FCC0FDD1FCF
:100EB000C80FD91FC451DE4F15E0FE0184910E9476
:100EC0001C07115021961111F8CF80E00E941C07D9
:100ED000DF91CF911F910895CF93DF93C82FD92F22
:100EE0008881811531F021960E944C0789918111EA
:100EF000FBCFDF91CF91089560E080E090E00E9409
:100F000043070895CF93282F392F2830310510F04B
:100F1000CF91089560E0C9010E944307C0E880E0D6
:100F20000E941C07C150C111FACFF2CFCF93DF93BB
:100F3000C0E0D0E0CE010E9482072196C830D105E2
:100F4000C9F70E947C07DF91CF910895DF92EF925D
:100F5000FF920F931F93CF93DF93062F172FF42E3B
:100F600060E00E944307CAE0F1948F2D0E941C07A5
:100F7000C150C111FACFF8012081211509F441C0F7
:100F80000F5F1F4F0F2EFAE0DF2EF02D06C0D82E78
:100F9000F80121918F01211521F120522F35C0F741
:100FA00030E0E901CC0FDD1FCC0FDD1FC20FD31FD6
:100FB000C451DE4F0F2EF5E0EF2EF02DFE0184918F
:100FC0008F250E941C07EA942196E110F7CF85E057
:100FD0008D0D8115E4F28F2D0E941C07F6E0DF0EC7
:100FE000D7CFD11434F08F2D0E941C07D394D11485
:100FF000D4F7DF91CF911F910F91FF90EF90DF9089
:1010000008950F2EFAE0DF2EF02DEDCFCF93DF9372
:10101000C82FD92F0E94960741E0209709F040E0A1
:1010200063E572E080E090E00E94A60741E0C130F5
:10103000D10509F040E06DE572E082E090E00E94A9
:10104000A60741E0C230D10509F040E069E672E050
:1010500084E090E00E94A60741E0239709F040E079
:1010600063E772E086E090E00E94A607DF91CF91EF
:101070000895282F392F2230310579F028F4232BB9
:1010800079F088E892E008952330310519F483E778
:1010900092E008958EE992E0089584E992E008953F
:1010A0008EE792E00895CF93DF93C82FD92F862F34
:1010B000972FC330D10539F0C430D10589F0CE0166
:1010C000DF91CF910895009729F483E090E00E948A
:1010D0000608F5CFEC012197CE010E940608EFCF5C
:1010E0008330910531F0EC012196CE010E94060873
:1010F000E6CF80E090E00E940608C0E0D0E0DFCFBD
:101100008DE083BF8FE581BF89B7816089BF089576
:101110008F9381E080930D038F9118958A98929A0E
:1011200085B78E7F85BF85B7826085BF80E48ABF23
:101130008BB780648BBF789408958F9381E0809300
:101140000C038F9118951F93CF93DF9381E090E06C
:101150000E94AB0684E00E94A00681E48A95F1F724
:1011600000C00E94A306182F83E08A95F1F70000C3
:101170000E94A306D82F83E08A95F1F700000E9411
:10118000A306C82F0E94A706612F7D2F8C2FDF9109
:10119000CF911F91089520910C03211101C0089552
:1011A00010920C030E9439089F938F9386EA92E075
:1011B0009F938F930E94720B0F900F900F900F9040
:1011C00008950F931F93CF93DF9300D000D000D0EA
:1011D000CDB7DEB7082F192F29833A834B835C8361
:1011E0006D837E8380910D0381110DC0802F912F1F
:1011F0000F900F900F900F900F900F90DF91CF9165
:101200001F910F91089510920D032AE04981532FE9
:101210006B817C818D819E810E949205282F392FC0
:101220002115310519F3602F712FC9010E94530850
:10123000082F192FDBCFCF93DF930E94A308D72F5E
:10124000C82F60FD09C0D0FD0CC0C4FD0FC0C0FD9B
:1012500012C0DF91CF91089587EB92E00E94880B36
:10126000F2CF83EC92E00E94880BEFCF8FEC92E0FC
:101270000E94880BECCF87ED92E00E94880BE9CFAB
:10128000CF93DF93CDB7DEB72D970FB6F894DEBFBF
:101290000FBECDBFE82FF92F80819181811528E005
:1012A000920758F54281493040F59C0136952795C3
:1012B000369527953695279529838295880F807EC8
:1012C0008A831B821C824D83411559F03396DE01BF
:1012D00016969F01240F311D81918D93E217F3071C
:1012E000D9F750E04B5F5F4FBE016F5F7F4F81E3E7
:1012F0000E94F20981E00E94140A2D960FB6F8941C
:10130000DEBF0FBECDBFDF91CF910895EF92FF9268
:101310000F931F93CF93082F192F0E94220A80FD4D
:1013200007C080E0CF911F910F91FF90EF9008953B
:1013300081E60E94D409C82F82E60E94D4092C2F8E
:1013400030E0220F331F220F331F220F331F8295ED
:1013500086958770282BF8013183208385E60E94CB
:10136000D4098F70893028F4F8018283811104C078
:1013700014C088E0F80182837801F3E0EF0EF11CDD
:10138000C0E086E68C0F0E94D409F70181937F01AB
:10139000CF5FF8018281C817A0F340E061E08CE2E2
:1013A0000E94320A81E0BECFCF93C82F82E090E046
:1013B0000E94AB0683E00E94A0068C2F0E94A0062C
:1013C0000E94A306C82F0E94A7068C2FCF910895D4
:1013D00082E090E00E94AB0680EC0E94A0060E9492
:1013E000A7060895FF920F931F93CF93DF93F82ED4
:1013F000D62FC72F042F152F82E090E00E94AB0656
:1014000082E00E94A0068F2D0E94A006602F712FFF
:101410008D2F9C2F0E94C1060E94A706DF91CF91BD
:101420001F910F91FF900895CF93C82F82E090E015
:101430000E94AB068C2F80680E94A0060E94A7061F
:10144000CF910895CF9382E090E00E94AB0680EAAE
:101450000E94A0060E94A306C82F0E94A7068C2FF8
:10146000CF9108951F93CF93DF93182FD62FC42FBA
:1014700082E090E00E94AB0685E00E94A006812FEA
:101480000E94A0068D2F0E94A0068C2F0E94A0060D
:101490000E94A706DF91CF911F910895CF93C82F87
:1014A0008FEF9FE20197F1F700C000000E94E8096A
:1014B0008FEF9FE20197F1F700C000008EE00E94DD
:1014C000D409807E803889F540E06FE38AE20E948B
:1014D000320A40E060EC8AE20E94320A40E860E8AA
:1014E00089E20E94320A40E060E489E20E94320A06
:1014F00040E368E389E20E94320A41E067E089E262
:101500000E94320A45E067E088E20E94320A40E029
:1015100061E08CE20E94320AC11581F040E460EE85
:101520008FE00E94320ACF91089583EE92E09F935C
:101530008F930E94720B0F900F90C6CF40E060EE29
:101540008FE00E94320AEFCF97FB072E16F400942B
:1015500007D077FD09D00E94B80A07FC05D03EF4F9
:10156000909581959F4F0895709561957F4F08954F
:10157000AA1BBB1B51E107C0AA1FBB1FA617B707B9
:1015800010F0A61BB70B881F991F5A95A9F78095D5
:101590009095BC01CD0108958F929F92AF92BF921A
:1015A000CF92DF92EF92FF92CF93DF93EC016881AD
:1015B00079818A819B81611571058105910521F4ED
:1015C00064E279ED8BE597E02DE133EF41E050E007
:1015D0000E948D0F49015A019B01AC01A7EAB1E4B9
:1015E0000E94AC0F6B017C01ACEEB4EFA50194013D
:1015F0000E94BA0FDC01CB018C0D9D1DAE1DBF1DDD
:10160000B7FF03C00197A109B04888839983AA83D3
:10161000BB839F77DF91CF91FF90EF90DF90CF90CA
:10162000BF90AF909F908F9008950E94CC0A08952C
:1016300080E091E00E94CC0A0895A0E0B0E08093A1
:10164000000190930101A0930201B093030108955A
:101650000F931F93CF93DF93EC018B01892B51F4F0
:10166000672B41F4E0E0F0E0CF01DF91CF911F91D3
:101670000F9108956EE070E081E090E00E949F0D70
:10168000FC01892B79F380E883830115110571F042
:101690001387028781E8838380910E0390910F0363
:1016A000892B21F4F0930F03E0930E032097E1F2CE
:1016B000D187C0878381826083838091100390915A
:1016C0001103892B89F6F0931103E09310038091A5
:1016D000120390911303892B39F6F0931303E093CF
:1016E0001203C2CFA0E0B0E0E8E7FBE00C94CF0F1C
:1016F000AE014B5F5F4FFA0161917191AF01809133
:101700001003909111030E94B40BE2E00C94EB0FD4
:101710000F931F93CF93DF93E0911003F091110388
:10172000238100E010E021FD0EC00FEF1FEFC80184
:10173000DF91CF911F910F9108950995892B11F099
:101740000FEF1FEFCE01EC018991609110037091B2
:101750001103DB011896ED91FC918111EECF8AE027
:101760000995892B21F3E1CFABE0B0E0EAEBFBE098
:101770000C94C20F6C017B018A01FC011782168256
:10178000838181FFD9C19AE0592EF6012381F701A7
:1017900023FD859123FF81917F01811509F41FC1EC
:1017A000853239F423FD959123FF91917F01953284
:1017B00029F4B60190E00E94FF0EE7CF30E0912CB3
:1017C000612C712CF0E27F1640F59B32D9F058F471
:1017D0009032D1F09332F1F09E3299F576FCFFC051
:1017E000689476F806C09D3291F09033C1F4689405
:1017F00070F8F70123FD959123FF91917F019111DD
:10180000E1CF29C0689471F8689472F8F2CF6894B7
:1018100073F8EFCF689474F8ECCF77FC1CC080EDC0
:10182000890F8A30C8F676FE05C0959C800D11247C
:10183000982EDFCF659C800D1124682E689475F872
:10184000D8CF9C3619F4689477F8D3CF9C3409F438
:101850004BC0983671F2892F8F7D8554833008F400
:1018600045C0933609F466C0933709F469C09335CF
:1018700009F475C0943619F0993609F09FC0F80143
:1018800077FE95C061917191819191918F01272D82
:101890002F76822E97FF09C090958095709561955F
:1018A0007F4F8F4F9F4F689487F82AE030E0AE015A
:1018B0004F5F5F4F5A010E942F0F8A19A82E86FE94
:1018C000C4C0882D8E7FA91408F0BEC084FE11C14B
:1018D00082FC05C1F82DFE7E8F2EB92C882D8678CE
:1018E000811509F4BFC000C131E083CF3115F9F093
:1018F000085F1F4F8FE3898388248394912CAE0166
:101900004F5F5F4F5A01E89477F873FC03C0861469
:101910009104B0F181149104D1F5611409F435CF2B
:10192000B60180E290E00E94FF0E6A94F6CF0C5F51
:101930001F4FE0CFF801808189830E5F1F4FDCCFFE
:10194000F801A190B1908F01692D70E076FC02C082
:101950006FEF7FEFC5010E94F40E4C01D4CFF80168
:10196000A190B1908F01692D70E076FC02C06FEFFD
:101970007FEFC5010E94E20E4C01689477F8C5CF55
:10198000B60180E290E00E94FF0E6A94C0CFF5019C
:1019900077FC859177FE81915F01B60190E00E940E
:1019A000FF0E61106A94F1E08F1A9108B3CF619134
:1019B0007191072E000C880B990B68CF872CE89447
:1019C00084F82AE030E0953739F1572D597F852E7C
:1019D000903799F058F49835A9F09F36D9F0F60170
:1019E000868197812B96EFE00C94DE0F9837B9F73C
:1019F00074FC05C020E130E00FC0689484F868945E
:101A000082F8F8CF74FE03C0872D8660882E20E10F
:101A100032E002C028E030E0F80187FE10C061919A
:101A20007191819191918F01FE0131965F01AF011A
:101A30000E942F0F8A19A82EE89487F840CF619151
:101A4000719180E090E0EFCF882EBA2C84FE46CFD3
:101A5000FE01EA0DF11D8081803309F043C0282D7D
:101A6000297E822E83FC0EC080FE4FC09A2CB614B5
:101A700018F4960C9B18B62C862D8B196B1408F451
:101A800080E0B80EB61408F042C06B1884FE41C066
:101A9000B60180E390E00E94FF0E82FE09C088E557
:101AA00090E081FC02C088E790E0B6010E94FF0E42
:101AB000A914D8F1AA94B12C4FEFA41AB40ACE01FC
:101AC00001964C01A80EB91EF50182915F01B60185
:101AD00090E00E94FF0E8A149B04B1F71ECFB92C30
:101AE000882EB6CF82FC02C0B394BCCFB394B3941B
:101AF000B9CFB92C882EF2CEB60180E290E00E94D8
:101B0000FF0E73947614C0F3B7CF7B2CFBCF612C00
:101B1000BDCF882D8678811559F280E281FC8BE259
:101B200087FC8DE2B60190E0C1CFB60180E390E082
:101B30000E94FF0E9A94BCCF8FEF9FEF53CF0F936D
:101B40001F93CF93DF93869F8001879F100D969FF1
:101B5000100D1124C8010E94BB0DEC01009729F063
:101B6000A80160E070E00E94ED0ECE01DF91CF9100
:101B70001F910F9108950F931F93CF93DF939C01B3
:101B8000029710F422E030E0E0911403F091150385
:101B900080E090E0A0E0B0E0309791F4009709F485
:101BA00048C0821B930B84309105D0F58A819B81BC
:101BB0006115710581F1FB0193838283FE0111C0E0
:101BC000408151810281138142175307D8F0421797
:101BD000530799F4109761F012960C93129713968D
:101BE0001C933296CF01DF91CF911F910F910895F1
:101BF0000093140310931503F4CF009751F0481786
:101C0000590738F0AC01DB01CA01BD01DF01F80161
:101C1000C3CFEF01F9CF9093150380931403CECF78
:101C2000FE01E80FF91F219331930297998388836E
:101C3000D9CF40911603509117034115510541F436
:101C400040910601509107015093170340931603EA
:101C50008091040190910501009741F48DB79EB7E2
:101C60006091080170910901861B970B481759076D
:101C700008F0B8CF841B950B8217930708F4B2CFF6
:101C8000B9016E5F7F4F8617970708F4ABCF640FDB
:101C9000751F7093170360931603FA012193319314
:101CA000A1CFCF93DF939C010097E9F0FC0132971D
:101CB00013821282C0911403D0911503DE0180E0DB
:101CC00090E02097A1F480819181280F391F8091A5
:101CD0001603909117038217930709F068C0F093D9
:101CE0001703E0931603DF91CF910895DA01AE1741
:101CF000BF0708F042C012964D915C911397CD0139
:101D00004115510599F7DC011396FC93EE93129758
:101D10004D915D919D01240F351FE217F30781F46A
:101D2000208131812E5F3F4F240F351FDC0111963A
:101D30003C932E932281338113963C932E931297DA
:101D4000E0E0F0E08A819B810097B1F5DE018D91A2
:101D50009D918A0F9B1F209116033091170328171E
:101D6000390709F6309759F51092150310921403AC
:101D7000D0931703C0931603B6CFB383A2834081D9
:101D80005181240F351FA217B30771F44E5F5F4FC7
:101D90002D913C911197240F351F3183208312968A
:101DA0002D913C9133832283009709F0ACCFF093BF
:101DB0001503E093140397CFFE01EC01C3CF138208
:101DC0001282D6CFFC010590615070400110D8F707
:101DD000809590958E0F9F1F0895DC0101C06D9333
:101DE00041505040E0F70895FC016150704001906F
:101DF0000110D8F7809590958E0F9F1F08950F932F
:101E00001F93CF93DF93182F092FEB018B8181FD57
:101E100009C01FEF0FEF812F902FDF91CF911F91FE
:101E20000F91089582FF14C02E813F818C819D8186
:101E3000281739073CF4E881F981CF01019699838D
:101E4000888310838E819F8101969F838E83E3CF49
:101E5000E885F985812F0995892BA1F3DACFFA015D
:101E6000AA27283051F1203181F1E8946F936E7FD9
:101E70006E5F7F4F8F4F9F4FAF4FB1E03ED0B4E0CA
:101E80003CD0670F781F891F9A1FA11D680F791F0B
:101E90008A1F911DA11D6A0F711D811D911DA11D1C
:101EA00020D009F468943F912AE0269F112430192C
:101EB000305D3193DEF6CF010895462F4770405DC7
:101EC0004193B3E00FD0C9F7F6CF462F4F70405D76
:101ED0004A3318F0495D31FD4052419302D0A9F7D1
:101EE000EACFB4E0A6959795879577956795BA95CB
:101EF000C9F700976105710508959B01AC010A2E91
:101F000006945795479537952795BA95C9F7620F67
:101F1000731F841F951FA01D0895052E97FB1EF4A7
:101F200000940E94A40F57FD07D00E94F60F07FCF3
:101F300003D04EF40C94A40F509540953095219504
:101F40003F4F4F4F5F4F08959095809570956195E5
:101F50007F4F8F4F9F4F08950E941810A59F900D9F
:101F6000B49F900DA49F800D911D11240895B7FF7B
:101F70000C94AC0F0E94AC0F821B930B08952F9210
:101F80003F924F925F926F927F928F929F92AF9209
:101F9000BF92CF92DF92EF92FF920F931F93CF9356
:101FA000DF93CDB7DEB7CA1BDB0B0FB6F894DEBFED
:101FB0000FBECDBF09942A88398848885F846E8413
:101FC0007D848C849B84AA84B984C884DF80EE805D
:101FD000FD800C811B81AA81B981CE0FD11D0FB666
:101FE000F894DEBF0FBECDBFED010895A1E21A2E19
:101FF000AA1BBB1BFD010DC0AA1FBB1FEE1FFF1FAD
:10200000A217B307E407F50720F0A21BB30BE40BFC
:10201000F50B661F771F881F991F1A9469F7609543
:102020007095809590959B01AC01BD01CF010895FD
:10203000A29FB001B39FC001A39F700D811D112409
:10204000911DB29F700D811D1124911D0895F8946A
:02205000FFCFC0
:1020520001000000000018032000230103AABBCCEA
:10206200000000000000185265636569766564200F
:102072006D6573736167653A0D0049443A2020200B
:1020820020203078253033580D0A004C656E677475
:10209200683A2025750D0A00446174613A200030C7
:1020A200782530325820004E6F2043414E206D6516
:1020B20073736167652072656365697665640D0097
:1020C2005374617274696E67205352414D20746576
:1020D20073742E2E2E0057726974652070686173B6
:1020E20065206572726F723A206578745F72616DF5
:1020F2005B2534645D203D202530325820287368EA
:102102006F756C642062652025303258290A0052AE
:10211200657472696576616C2070686173652065AB
:1021220072726F723A206578745F72616D5B2534EA
:10213200645D203D2025303258202873686F756C0D
:10214200642062652025303258290A005352414DDD
:10215200207465737420636F6D706C6574656420A0
:10216200776974680A253464206572726F7273200D
:10217200696E207772697465207068617365206189
:102182006E640A253464206572726F727320696E00
:102192002072657472696576616C2070686173651E
:1021A2000A0A0045617379204D6F6465004E6F72B3
:1021B2006D616C204D6F64650048617264204D6FE3
:1021C200646500496D706F737369626C6500456187
:1021D2007379206D6F6465004E6F726D616C206D56
:1021E2006F64650048617264206D6F646500556EAE
:1021F2006B6E6F776E004D656E792076616C6774D9
:102202003A2025730D0A005231207072657373658E
:10221200640D004C3120707265737365640D004E5D
:1022220061762075700D004E617620627574746F50
:102232006E0D0043503235313520646964206E6F73
:102242007420656E74657220636F6E66696775725D
:0C2252006174696F6E206D6F64650000A0
:00000001FF
